:020000040800F2
:100000000000042075320008113200081332000885
:1000100015320008173200081932000800000000ED
:100020000000000000000000000000001B3200087B
:100030001D320008000000001F32000821320008B5
:10004000C5320008C5320008C5320008C5320008B4
:10005000C5320008C5320008C5320008C5320008A4
:10006000C5320008C5320008C5320008C532000894
:10007000C5320008C5320008C5320008C532000884
:10008000C5320008C532000841290008C532000801
:10009000C5320008C5320008C5320008C532000864
:1000A000C5320008C5320008C5320008C532000854
:1000B000C5320008B1290008C9290008C532000866
:1000C000C5320008C5320008C5320008C532000834
:1000D000C5320008C5320008C5320008C532000824
:1000E000C5320008C5320008C5320008C532000814
:1000F000C5320008C5320008C5320008C532000804
:1001000000000000C5320008C5320008C5320008F2
:100110000000000000000000C5320008C5320008E1
:10012000C5320008C5320008C5320008C5320008D3
:10013000C5320008C5320008C5320008C5320008C3
:10014000C5320008C5320008C5320008C5320008B3
:10015000C5320008C5320008C5320008C5320008A3
:10016000C5320008C5320008000000000000000091
:10017000000000000000000000000000000000007F
:10018000C5320008C5320008000000000000000071
:10019000C5320008C5320008000000000000000061
:1001A000000000000000000000000000000000004F
:1001B000C53200080000000000000000C532000841
:0401C000C53200083C
:1001C80010B5054C237833B9044B13B10448AFF389
:1001D80000800123237010BDB8000020000000003B
:1001E8002434000808B5034B1BB103490348AFF397
:1001F800008008BD00000000BC0000202434000876
:1002080081F0004102E000BF83F0004330B54FEABF
:1002180041044FEA430594EA050F08BF90EA020F2C
:100228001FBF54EA000C55EA020C7FEA645C7FEABF
:10023800655C00F0E2804FEA5454D4EB5555B8BFE2
:100248006D420CDD2C4480EA020281EA030382EA53
:10025800000083EA010180EA020281EA0303362DE5
:1002680088BF30BD11F0004F4FEA01314FF4801CB8
:100278004CEA113102D0404261EB410113F0004FCA
:100288004FEA03334CEA133302D0524263EB430381
:1002980094EA050F00F0A780A4F10104D5F1200E1F
:1002A8000DDB02FA0EFC22FA05F2801841F100017A
:1002B80003FA0EF2801843FA05F359410EE0A5F14E
:1002C80020050EF1200E012A03FA0EFC28BF4CF07F
:1002D800020C43FA05F3C01851EBE37101F0004535
:1002E80007D54FF0000EDCF1000C7EEB00006EEB42
:1002F8000101B1F5801F1BD3B1F5001F0CD34908CC
:100308005FEA30004FEA3C0C04F101044FEA445222
:1003180012F5800F80F09A80BCF1004F08BF5FEAA9
:10032800500C50F1000041EB045141EA050130BD89
:100338005FEA4C0C404141EB010111F4801FA4F12C
:100348000104E9D191F0000F04BF01460020B1FA81
:1003580081F308BF2033A3F10B03B3F120020CDAB9
:100368000C3208DD02F1140CC2F10C0201FA0CF097
:1003780021FA02F10CE002F11402D8BFC2F1200CFC
:1003880001FA02F120FA0CFCDCBF41EA0C019040B2
:10039800E41AA2BF01EB0451294330BD6FEA0404FB
:1003A8001F3C1CDA0C340EDC04F11404C4F12002E6
:1003B80020FA04F001FA02F340EA030021FA04F3F8
:1003C80045EA030130BDC4F10C04C4F1200220FA4F
:1003D80002F001FA04F340EA0300294630BD21FA8D
:1003E80004F0294630BD94F0000F83F4801306BF53
:1003F80081F480110134013D4EE77FEA645C18BF47
:100408007FEA655C29D094EA050F08BF90EA020FDD
:1004180005D054EA000C04BF1946104630BD91EAD5
:10042800030F1EBF0021002030BD5FEA545C05D1D8
:100438004000494128BF41F0004130BD14F5800417
:100448003CBF01F5801130BD01F0004545F0FE418B
:1004580041F470014FF0000030BD7FEA645C1ABFC0
:10046800194610467FEA655C1CBF0B46024650EAF7
:10047800013406BF52EA033591EA030F41F4002123
:1004880030BD00BF90F0000F04BF0021704730B5A9
:100498004FF4806404F132044FF000054FF000017E
:1004A80050E700BF90F0000F04BF0021704730B53F
:1004B8004FF4806404F1320410F0004548BF404214
:1004C8004FF000013EE700BF42004FEAE2014FEA69
:1004D80031014FEA02701FBF12F07F4393F07F4F44
:1004E80081F06051704732F07F4208BF704793F047
:1004F8007F4F04BF41F40021704730B54FF460745A
:1005080001F0004521F000411CE700BF50EA01025C
:1005180008BF704730B54FF000050AE050EA010205
:1005280008BF704730B511F0004502D5404261EB75
:1005380041014FF4806404F132045FEA915C3FF4B6
:10054800D8AE4FF003025FEADC0C18BF03325FEA53
:10055800DC0C18BF033202EBDC02C2F1200300FA04
:1005680003FC20FA02F001FA03FE40EA0E0021FA29
:1005780002F11444BDE600BF70B54FF0FF0C4CF417
:10058800E06C1CEA11541DBF1CEA135594EA0C0FC9
:1005980095EA0C0F00F0DEF82C4481EA030621EA04
:1005A8004C5123EA4C5350EA013518BF52EA03353F
:1005B80041F4801143F4801338D0A0FB02CE4FF0F1
:1005C8000005E1FB02E506F00042E0FB03E54FF021
:1005D8000006E1FB03569CF0000F18BF4EF0010E19
:1005E800A4F1FF04B6F5007F64F5407404D25FEA15
:1005F8004E0E6D4146EB060642EAC62141EA5551C8
:100608004FEAC52040EA5E504FEACE2EB4F1FD0C09
:1006180088BFBCF5E06F1ED8BEF1004F08BF5FEA87
:10062800500E50F1000041EB045170BD06F0004639
:1006380046EA010140EA020081EA0301B4EB5C04E6
:10064800C2BFD4EB0C0541EA045170BD41F48011DE
:100658004FF0000E013C00F3AB8014F1360FDEBF03
:10066800002001F0004170BDC4F10004203C35DADF
:100678000C341BDC04F11404C4F1200500FA05F362
:1006880020FA04F001FA05F240EA020001F0004203
:1006980021F0004110EBD37021FA04F642EB060179
:1006A8005EEA430E08BF20EAD37070BDC4F10C04A3
:1006B800C4F1200500FA04F320FA05F001FA04F267
:1006C80040EA020001F0004110EBD37041F1000153
:1006D8005EEA430E08BF20EAD37070BDC4F120055E
:1006E80000FA05F24EEA020E20FA04F301FA05F2C6
:1006F80043EA020321FA04F001F0004121FA04F26E
:1007080020EA020000EBD3705EEA430E08BF20EA3D
:10071800D37070BD94F0000F0FD101F00046400077
:1007280041EB010111F4801F08BF013CF7D041EAF9
:10073800060195F0000F18BF704703F000465200FD
:1007480043EB030313F4801F08BF013DF7D043EACE
:100758000603704794EA0C0F0CEA135518BF95EA84
:100768000C0F0CD050EA410618BF52EA4306D1D10B
:1007780081EA030101F000414FF0000070BD50EA2A
:10078800410606BF1046194652EA430619D094EAB4
:100798000C0F02D150EA013613D195EA0C0F05D19E
:1007A80052EA03361CBF104619460AD181EA0301F2
:1007B80001F0004141F0FE4141F470014FF00000AA
:1007C80070BD41F0FE4141F4780170BD70B54FF045
:1007D800FF0C4CF4E06C1CEA11541DBF1CEA1355C5
:1007E80094EA0C0F95EA0C0F00F0A7F8A4EB0504A7
:1007F80081EA030E52EA03354FEA013100F088809E
:100808004FEA03334FF0805545EA131343EA126366
:100818004FEA022245EA111545EA10654FEA00261B
:100828000EF000419D4208BF964244F1FD0404F5D4
:10083800407402D25B084FEA3202B61A65EB030530
:100848005B084FEA32024FF480104FF4002CB6EBED
:10085800020E75EB030E22BFB61A754640EA0C006D
:100868005B084FEA3202B6EB020E75EB030E22BFAD
:10087800B61A754640EA5C005B084FEA3202B6EBEE
:10088800020E75EB030E22BFB61A754640EA9C00AD
:100898005B084FEA3202B6EB020E75EB030E22BF7D
:1008A800B61A754640EADC0055EA060E18D04FEA3B
:1008B800051545EA16754FEA06164FEAC30343EADB
:1008C80052734FEAC2025FEA1C1CC0D111F4801FA8
:1008D8000BD141EA00014FF000004FF0004CB6E7A1
:1008E80011F4801F04BF01430020B4F1FD0C88BF40
:1008F800BCF5E06F3FF6AFAEB5EB030C04BFB6EB4B
:10090800020C5FEA500C50F1000041EB045170BD3D
:100918000EF0004E4EEA113114EB5C04C2BFD4EB6A
:100928000C0541EA045170BD41F480114FF0000EEE
:10093800013C90E645EA060E8DE60CEA135594EA6A
:100948000C0F08BF95EA0C0F3FF43BAF94EA0C0F6D
:100958000AD150EA01347FF434AF95EA0C0F7FF4E2
:1009680025AF104619462CE795EA0C0F06D152EA36
:1009780003353FF4FDAE1046194622E750EA41061A
:1009880018BF52EA43067FF4C5AE50EA41047FF42B
:100998000DAF52EA43057FF4EBAE12E74A0011D2DD
:1009A80012F5001211D20DD56FF47873B3EB6252C1
:1009B8000ED44FEAC12343F0004343EA505323FACD
:1009C80002F070474FF00000704750EA013002D142
:1009D8004FF0FF3070474FF0000070474FEA410278
:1009E800B2F1E04324BFB3F5001CDCF1FE5C0DD985
:1009F80001F0004C4FEAC0024CEA5070B2F1004FCF
:100A080040EB830008BF20F00100704711F0804FD1
:100A180021D113F13872BCBF01F00040704741F496
:100A280080114FEA5252C2F11802C2F1200C10FA9A
:100A38000CF320FA02F018BF40F001004FEAC1237E
:100A48004FEAD32303FA0CFC40EA0C0023FA02F322
:100A58004FEA4303CCE77FEA625307D150EA0133F8
:100A68001EBF4FF0FE4040F44000704701F00040C8
:100A780040F0FE4040F40000704700BF53B94AB947
:100A8800002908BF00281CBF4FF0FF314FF0FF308E
:100A980000F072B9ADF1080C6DE904CE00F006F86B
:100AA800DDF804E0DDE9022304B070472DE9F047E2
:100AB800089E04468846002B4BD18A42154667D9C2
:100AC800B2FA82F24AB1C2F1200701FA02F320FA1F
:100AD80007F7954047EA030894404FEA154E230C60
:100AE800B8FBFEF71FFA85FC0EFB178843EA08439C
:100AF80007FB0CF1994209D9EB1807F1FF3080F098
:100B08001B81994240F21881023F2B445B1AA4B220
:100B1800B3FBFEF00EFB103344EA034400FB0CFC6D
:100B2800A44509D92C1900F1FF3380F00781A445A9
:100B380040F2048102382C4440EA0740A4EB0C043C
:100B480000271EB1D4400023C6E900433946BDE85A
:100B5800F0878B4209D9002E00F0EB800027C6E908
:100B6800000138463946BDE8F087B3FA83F7002F0D
:100B780047D18B4202D3824200F2FA80841A61EB99
:100B8800030301209846002EE0D0C6E90048DDE7BF
:100B980002B9FFDEB2FA82F2002A40F08F80491BC8
:100BA8004FEA154E1FFA85F80127B1FBFEFC230C0E
:100BB8000EFB1C1143EA014308FB0CF1994207D9CB
:100BC800EB180CF1FF3002D2994200F2CD80844636
:100BD800591AA3B2B1FBFEF00EFB101443EA044409
:100BE80008FB00F8A04507D92C1900F1FF3302D201
:100BF800A04500F2B6801846A4EB080440EA0C4071
:100C08009FE7C7F1200CBB4022FA0CFE4EEA030E08
:100C180001FA07F420FA0CF521FA0CF34FEA1E4802
:100C28002543B3FBF8F92C0C08FB19331FFA8EFA8D
:100C380044EA034309FB0AF49C4202FA07F200FA69
:100C480007F10BD91EEB030309F1FF3080F0878011
:100C58009C4240F28480A9F1020973441B1BADB287
:100C6800B3FBF8F008FB103345EA034400FB0AFA2B
:100C7800A24508D91EEB040400F1FF336BD2A2454C
:100C880069D90238744440EA0940A0FB0289A4EB00
:100C98000A044C45C2464B4654D351D0002E69D065
:100CA800B1EB0A0564EB030404FA0CFCFD40FC40BC
:100CB8004CEA0505C6E90054002747E7C2F12003BE
:100CC80020FA03F7954001FA02F021FA03F34FEAFC
:100CD800154E3843010CB3FBFEF71FFA85F80EFBDF
:100CE800173341EA034107FB08F38B4204FA02F485
:100CF80007D9691807F1FF3C2FD28B422DD9023F43
:100D08002944CB1A81B2B3FBFEF00EFB103341EA43
:100D1800034100FB08F38B4207D9691800F1FF3C37
:100D280017D28B4215D902382944C91A40EA074715
:100D38003BE73746304609E70746E7E61846FBE64D
:100D48004145ABD2B8EB020A69EB0E0201381346F3
:100D5800A4E76046E9E7184695E76746D1E7814684
:100D68007CE702382C4447E7ACF1020C2B442FE710
:100D7800384608E73746E9E6704700BF10B504462D
:100D88000E4B18784FF47A73B3FBF0F30C4A1068E3
:100D9800B0FBF3F000F0B2FA68B90F2C01D90120CA
:100DA8000AE0002221464FF0FF3000F05BFA034BC7
:100DB8005C60002000E0012010BD00BF00000020A2
:100DC8005000002008B50B4B1A6842F400721A60F4
:100DD8001A6842F480621A601A6842F480721A60D3
:100DE800032000F02DFA0020FFF7C8FF02F09CF95D
:100DF800002008BD003C0240034A1168034B1B78E1
:100E08000B441360704700BFFC0000200000002066
:100E1800014B1868704700BFFC000020494B5A6816
:100E280022F440325A605A6841680A435A6002689C
:100E3800536823F48073536002685368016943EA76
:100E4800012353600268536823F0407353600268BB
:100E5800536881680B4353600268936823F4006306
:100E6800936002689368C1680B439360826A364B4B
:100E78009A4249D00268936823F0706393600268CD
:100E88009368816A0B4393600268936823F0405328
:100E9800936002689368C16A0B4393600268936821
:100EA80023F00203936002689368816943EA41036F
:100EB8009360036A002B32D10268536823F40063FD
:100EC80053600268D36A23F47003D3620168CB6A63
:100ED800C269013A43EA0253CB620268936823F479
:100EE8000073936002689368016B43EA412393603F
:100EF8000268936823F48063936002689368416989
:100F080043EA8123936070470268936823F0706313
:100F180093600268936823F040539360BEE70268C9
:100F2800536843F4006353600268536823F46043D2
:100F3800536001684B68426A013A43EA42334B60A6
:100F4800BFE700BF002301400100000F30B310B518
:100F58000446036C43B1236C13F0100F0AD0012030
:100F6800002384F83C3010BD436480F83C3002F024
:100F7800F7F8F0E7236C23F4885323F0020343F0D7
:100F8800020323642046FFF749FF00206064236CB6
:100F980023F0030343F001032364E1E701207047D2
:100FA80082B00023019390F83C30012B6AD00123D2
:100FB80080F83C3003689A6812F0010F13D19A68E0
:100FC80042F001029A60344B1B68344AA2FB0323A7
:100FD8009B0C03EB4303019302E0019B013B01934C
:100FE800019B002BF9D10268936813F0010F4BD0D5
:100FF800036C23F4E06323F0010343F48073036478
:10100800536813F4806F05D0036C23F4405343F402
:1010180080530364036C13F4805F20D0436C23F087
:1010280006034364002380F83C306FF0220313600A
:101038000268536843F0806343F020035360184B01
:101048005B6813F01F0F0DD103689A6812F0405FB8
:101058001DD19A6842F080429A60002015E0002372
:101068004364DFE703680F4A934201D000200CE095
:101078009A6812F0405F0CD19A6842F080429A60F8
:10108800002002E0022000E0002002B070470020AB
:10109800FBE70020F9E700BF5000002083DE1B4378
:1010A80000230140002001400368D86C704700000D
:1010B80030B482B00023019390F83C30012B00F04B
:1010C800B780012380F83C300B68092B3ED90568AE
:1010D800EA689BB203EB43031E3B072404FA03F3BD
:1010E80022EA0303EB600568EA688C680B8803EB67
:1010F80043031E3B04FA03F31343EB604B68062BD0
:101108003AD805686A6B03EB8303053B1F2404FA8E
:1011180003F322EA03036B6305686A6B4B6803EB0E
:101128008303053B0C8804FA03F313436B630268DB
:10113800404B9A4250D002683E4B9A4255D0002309
:1011480080F83C30184602B030BC704705682A6900
:101158009BB203EB4303072404FA03F322EA0303D5
:101168002B6105682A698C680B8803EB430304FA32
:1011780003F313432B61C1E70C2B16D805682A6BC0
:1011880003EB8303233B1F2404FA03F322EA03033C
:101198002B6305682A6B4B6803EB8303233B0C889E
:1011A80004FA03F313432B63C1E70568EA6A03EB08
:1011B8008303413B1F2404FA03F322EA0303EB628F
:1011C8000568EA6A4B6803EB8303413B0C8804FA21
:1011D80003F31343EB62AAE70B68122BABD1164A51
:1011E800536843F480035360A5E70B68103B012B59
:1011F800A5D8114A536843F4000353600B68102BB9
:101208009DD10E4B1B6802F1467202F52E3202F296
:101218008332A2FB03239B0C03EB83035A00019246
:1012280002E0019B013B0193019B002BF9D186E76A
:10123800022088E7002001400023014050000020E0
:10124800074AD36823F4E0631B041B0C000200F474
:10125800E060184340F0BF6040F40030D060704751
:1012680000ED00E030B4174BDB68C3F30223C3F191
:101278000704042C28BF04241D1D062D18D9033B80
:101288004FF0FF3505FA04F421EA0401994005FA04
:1012980003F322EA0303194300280BDB0901C9B24F
:1012A80000F1604000F5614080F8001330BC7047E1
:1012B8000023E5E700F00F000901C9B2024B1954F9
:1012C800F4E700BF00ED00E014ED00E000F01F02BD
:1012D800400901239340024A42F82030704700BF7A
:1012E80000E100E000F01F02400901239340203094
:1012F800014A42F82030704700E100E00138B0F1BF
:10130800807F0AD2064B5860064AF02182F82310E3
:101318000020986007221A6070470120704700BFBC
:1013280010E000E000ED00E000F01F02400901239A
:1013380093406030014A42F82030704700E100E0F5
:1013480000230F2B00F2D180F0B482B039E00622DE
:1013580000E00022B2403A430234644E46F82420AA
:10136800634A1468EA4302EA04064F6817F4803FA8
:1013780001D045EA04065E4C2660646802EA040669
:101388004F6817F4003F01D045EA0406584C6660E0
:10139800A46802EA04064F6817F4801F01D045EAE2
:1013A8000406534CA660E46822404E6816F4001FF9
:1013B80001D045EA04024E4CE26001330F2B00F2E3
:1013C800918001229A400C6804EA0205AA42F4D1ED
:1013D8004C68022C01D0122C10D1DE08083650F8C7
:1013E80026C003F00704A7000F24BC402CEA040C15
:1013F8000C69BC4044EA0C0440F8264004685F00CD
:101408000326BE40F64306EA040C4C6804F00304C5
:10141800BC4044EA0C0404604C6804F1FF3CBCF195
:10142800010F03D9112C01D0122C10D1846806EABF
:10143800040CCC68BC4044EA0C048460446824EA88
:1014480002024C68C4F300149C4014434460C26810
:1014580016408A68BA403243C2604A6812F0805F18
:10146800ABD000220192234A546C44F48044546463
:10147800526C02F480420192019A9C08A61C1B4AF5
:1014880052F8267003F0030296000F22B24027EAB2
:101498000207194A90423FF45CAF02F5806290421D
:1014A80016D002F58062904214D002F58062904214
:1014B80012D002F58062904210D002F5806290420C
:1014C8000ED002F5806290423FF441AF072241E717
:1014D80001223FE702223DE703223BE7042239E7E6
:1014E800052237E702B0F0BC70477047003801406A
:1014F800003C0140003802400000024012B90904D3
:101508008161704781617047264B9B6803F00C032B
:10151800042B44D0082B01D0234870472DE9F04B09
:10152800204B5A6802F03F025B6813F4800F13D017
:101538001C4B5968C1F3881100231C48A1FB00010A
:10154800FFF79CFA174B5B68C3F3014301335B0059
:10155800B0FBF3F0BDE8F08B124B5B68C3F3881364
:101568001E4600275C010025E41A65EB0705A90162
:1015780041EA9461A001001B61EB0501CB0043EA3D
:101588005073C400A01943EB07018B0243EA905340
:101598008402204619460023FFF770FAD2E7034871
:1015A800704700BF003802400024F40040787D01F5
:1015B800002800F09D8070B504464F4B1B6803F06F
:1015C8000F038B4209D2CBB24B4A1370136803F056
:1015D8000F038B4201D0012070BD236813F0020F66
:1015E80017D013F0040F04D0444A936843F4E0532F
:1015F8009360236813F0080F04D0404A936843F4BB
:10160800604393603D4A936823F0F003A068034366
:1016180093600D46236813F0010F32D06368012BE5
:1016280021D09A1E012A25D9344A126812F0020FD5
:1016380060D032498A6822F0030213438B60FFF7B7
:10164800E7FB06462D4B9B6803F00C036268B3EB7F
:10165800820F16D0FFF7DCFB801B41F288339842DB
:10166800F0D90320B8E7254A126812F4003FE0D108
:101678000120B1E7214A126812F0007FD9D1012078
:10168800AAE71D4B1B6803F00F03AB4209D9EAB266
:10169800194B1A701B6803F00F03AB4201D00120ED
:1016A8009AE7236813F0040F06D0144A936823F4CA
:1016B800E053E1680B439360236813F0080F07D0E9
:1016C8000E4A936823F46043216943EAC103936097
:1016D800FFF71AFF094B9B68C3F30313084AD35C4F
:1016E800D840084B18600020FFF748FB002073E73C
:1016F8000120704701206FE7003C0240003802409B
:101708003C3400085000002070B582B004460368DD
:1017180013F0010F3BD0A74B9B6803F00C03042B7D
:101728002CD0A44B9B6803F00C03082B21D06368D2
:10173800B3F5803F4FD0B3F5A02F52D09D4B1A6818
:1017480022F480321A601A6822F480221A606368D0
:10175800002B50D0FFF75CFB0546964B1B6813F433
:10176800003F14D1FFF754FB401B6428F5D9032030
:101778008AE1904B5B6813F4800FD8D08D4B1B68BF
:1017880013F4003F03D06368002B00F07A812368CC
:1017980013F0020F55D0874B9B6813F00C0F3ED007
:1017A800844B9B6803F00C03082B33D0E368002BB1
:1017B80068D0814B01221A60FFF72AFB05467D4B52
:1017C8001B6813F0020F54D1FFF722FB401B0228BD
:1017D800F5D9032058E1774A136843F4803313603E
:1017E800B5E7744B1A6842F480221A601A6842F40A
:1017F80080321A60ABE7FFF70BFB05466D4B1B68A1
:1018080013F4003FC3D0FFF703FB401B6428F5D94E
:10181800032039E1674B5B6813F4800FC6D1654B31
:101828001B6813F0020F04D0E368012B01D00120DC
:101838002AE1604A136823F0F803216943EAC103E7
:101848001360236813F0080F40D0636963B35B4BE0
:1018580001221A60FFF7DCFA0546564B5B6F13F05E
:10186800020F33D1FFF7D4FA401B0228F5D9032021
:101878000AE1504A136823F0F803216943EAC103D7
:101888001360DEE74C4B00221A60FFF7C1FA0546E9
:10189800484B1B6813F0020FD3D0FFF7B9FA401B6F
:1018A8000228F5D90320EFE0444B00221A60FFF725
:1018B800AFFA05463F4B5B6F13F0020F06D0FFF7F8
:1018C800A7FA401B0228F5D90320DDE0236813F0AE
:1018D800040F78D0374B1B6C13F0805F33D1002393
:1018E8000193344B1A6C42F080521A641B6C03F05B
:1018F80080530193019B0125314B1B6813F4807FB2
:1019080023D0A368012B34D0052B38D0294B1A6F6C
:1019180022F001021A671A6F22F004021A67A368FC
:10192800002B36D0FFF774FA0646224B1B6F13F0D4
:10193800020F47D1FFF76CFA801B41F288339842B7
:10194800F3D90320A0E00025D6E71D4A136843F425
:1019580080731360FFF75CFA0646194B1B6813F493
:10196800807FCED1FFF754FA801B0228F5D90320D7
:101978008AE0104A136F43F001031367CFE70D4B5A
:101988001A6F42F004021A671A6F42F001021A67CE
:10199800C5E7FFF73DFA0646064B1B6F13F0020F2B
:1019A80010D0FFF735FA801B41F288339842F3D9FB
:1019B800032069E00038024000004742800E474299
:1019C80000700040E5B9A369002B5CD0304A9268EA
:1019D80002F00C02082A59D0022B17D02D4B0022F6
:1019E8001A60FFF715FA0446294B1B6813F0007FAD
:1019F80045D0FFF70DFA001B0228F5D9032043E074
:101A0800234A136C23F080531364DCE7214B002234
:101A18001A60FFF7FDF905461D4B1B6813F0007FA0
:101A280006D0FFF7F5F9401B0228F5D903202BE073
:101A3800E369226A1343626A43EA8213A26A52087C
:101A4800013A43EA0243E26A43EA0263226B43EA49
:101A580002730F4A53600F4B01221A60FFF7D8F93F
:101A680004460B4B1B6813F0007F06D1FFF7D0F933
:101A7800001B0228F5D9032006E0002004E000201E
:101A880002E0012000E0002002B070BD0120FBE769
:101A9800003802406000474270B4036A23F0010333
:101AA8000362036A4268846924F073040D6845EA96
:101AB800040623F002048B6823430C4DA84202D08D
:101AC8000B4CA0420BD123F00803CD682B4323F025
:101AD800040322F440724D6915438A692A4342601F
:101AE80086614A684263036270BC70470000014027
:101AF8000004014030B4036A23F480730362036A6C
:101B08004268C46924F073040D682C4323F40073FD
:101B18008D6843EA05230E4DA84203D005F580657C
:101B2800A8420ED123F40063CD6843EA052323F4C9
:101B3800806322F440524D6942EA05128D6942EAF7
:101B480005124260C4614A68C263036230BC7047D0
:101B58000000014030B4036A23F480530362036A2F
:101B68004468C26922F4E6420D6842EA052223F479
:101B780000538D6843EA0533094DA84203D005F5A3
:101B88008065A84204D124F480444D6944EA851450
:101B98004460C2614A680264036230BC704700BF97
:101BA8000000014010B4036A046A24F001040462CE
:101BB800846924F0F00444EA021223F00A030B4378
:101BC800826103625DF8044B704710B4036A23F026
:101BD800100303628469036A24F4704444EA0232FD
:101BE80023F0A00343EA0113826103625DF8044B0A
:101BF8007047836823F0700341F00701194381603F
:101C0800704710B4846824F47F4442EA03230B43EA
:101C1800234383605DF8044B70470268D36843F040
:101C28000103D3600268136843F0010313600020C6
:101C38007047704790F83830012B7DD010B50446B6
:101C4800012380F83830022380F83930026893681D
:101C580023F47F4323F0770393600B68402B57D01E
:101C680010D9702B3ED01FD8502B47D0602B32D1C3
:101C7800CA6849680068FFF7A8FF60212068FFF775
:101C8800B8FF28E0102B4DD008D9202B4FD0302B8F
:101C980021D130210068FFF7ACFF1CE0DBB900213F
:101CA8000068FFF7A6FF16E0B3F5805F0ED0B3F526
:101CB800005F10D1CB684A6889680068FFF7A1FF08
:101CC8002268936843F48043936004E00268936851
:101CD80023F007039360012384F83930002084F847
:101CE800380010BDCB684A6889680068FFF789FF2B
:101CF8002268936843F077039360ECE7CA68496801
:101D08000068FFF74FFF50212068FFF772FFE2E7F6
:101D1800CA6849680068FFF745FF40212068FFF757
:101D280068FFD8E710210068FFF763FFD3E7202199
:101D38000068FFF75EFFCEE70220704703682E4A6F
:101D4800904212D0B0F1804F0FD0A2F57C42904261
:101D58000BD002F58062904207D002F58062904273
:101D680003D002F57842904203D123F070034A6809
:101D78001343214A90422AD0B0F1804F27D0A2F5D0
:101D88007C42904223D002F5806290421FD002F537
:101D9800806290421BD002F57842904217D002F53B
:101DA8007052904213D002F5806290420FD002F533
:101DB800806290420BD0A2F59832904207D002F58B
:101DC8008062904203D002F58062904203D123F4EE
:101DD8004073CA68134303608B68C3620B688362ED
:101DE800054B984203D003F58063984201D10B69F3
:101DF800036301234361704700000140A8B110B597
:101E0800044690F839305BB1022384F83930211D3B
:101E18002068FFF793FF012384F83930002010BDB4
:101E280080F8383001F0D0F9EEE701207047A8B10A
:101E380010B5044690F839305BB1022384F8393084
:101E4800211D2068FFF77AFF012384F8393000202C
:101E580010BD80F83830FFF7ECFEEEE70120704740
:101E680030B4036A23F010030362036A446882698A
:101E780022F4E6420D6842EA052223F020038D6829
:101E880043EA05130E4DA84203D005F58065A84224
:101E98000ED123F08003CD6843EA051323F04003F5
:101EA80024F440644D6944EA85048D6944EA850454
:101EB800446082614A688263036230BC704700BF35
:101EC8000000014090F83830012B28D010B50446A6
:101ED800012380F83830022380F839300C2A0BD8D7
:101EE800DFE802F0070A0A0A110A0A0A150A0A0AAA
:101EF80019000068FFF7D0FD012384F8393000206D
:101F080084F8380010BD0068FFF7AAFFF4E70068FE
:101F1800FFF7F0FDF0E70068FFF71CFEECE7022092
:101F2800704710B4012303FA01F4036A23EA040397
:101F38000362036A8A40134303625DF8044B7047E7
:101F480010B504460C290DD8DFE801F0070C0C0C7D
:101F5800230C0C0C290C0C0C2F000268D36843F0DE
:101F68000203D36001222068FFF7DBFF2368124ACF
:101F7800934203D002F58062934203D15A6C42F433
:101F880000425A642268136843F00103136000207A
:101F980010BD0268D36843F00403D360E2E7026827
:101FA800D36843F00803D360DCE70268D36843F0E2
:101FB8001003D360D6E700BF0000014090F8383026
:101FC800012B22D030B4012280F83820022380F877
:101FD80039300468636823F07003636004686368D9
:101FE8000D682B4363600468A36823F08003A36033
:101FF8000468A36849680B43A36080F8392000236C
:1020080080F83830184630BC70470220704730B42A
:1020180000241CE031F91230151931F915505B1BF9
:1020280007EE903AF8EEE77A436803EB840367EE2D
:10203800A77A93ED007A77EE277AC3ED007A01321A
:1020480012B2B0F902309342E4DC013424B2B0F9A0
:102058000230A34201DD0022F3E730BC70470000E4
:1020680043684FF07E521A609FED0D7A012312E00B
:10207800426802EB8302D2ED007A37EE277A06EE49
:10208800903AB8EEE66AC6EE076A67EEA67AC2ED3F
:10209800007A01331BB2B0F902209A42E8DC70479B
:1020A8000000000010B40223B0F9021099422BDDA1
:1020B800426802EB830494ED007AD0ED037AB4EE23
:1020C800E77AF1EE10FA02D401331BB2ECE75C1C9C
:1020D8008C420FDA02EB840494ED007A02EB83045D
:1020E800D4ED007AB4EEE77AF1EE10FA02D50133B6
:1020F8001BB2ECE702EB830292ED007AF7EE007A6E
:1021080077EEC77AC0ED027A99420FD0426802EBA7
:10211800830292ED007AD0ED037AB4EEE77AF1EE1D
:1021280010FA03DA18465DF8044B70470023836001
:102138004FF0FF33F6E710B400292DDD4B1E1BB21C
:102148004A1CB0F90240A24228DA12B28B4227D0C8
:102158008A423DD0406800EB8303D3ED006A00EB70
:10216800810393ED007A00EB8202D2ED007A06EE4D
:10217800101AB8EEC60A37EEE66A37EE077A77EE37
:10218800677A77EEE67A77EEA77A86EE277A30EEE8
:10219800070A5DF8044B70470B46D1E70A46D5E7B6
:1021A800436803EB810090ED007A03EB8203D3EDE3
:1021B800007AB4EEE77AF1EE10FA04D807EE901A36
:1021C800B8EEE70AE5E707EE902AB8EEE70AE0E797
:1021D800426802EB810090ED007A02EB8302D2EDB7
:1021E800007AB4EEE77AF1EE10FA04D807EE901A06
:1021F800B8EEE70ACDE707EE903AB8EEE70AC8E787
:1022080010B50446018001EBD171481060800023AD
:10221800A36084ED030A800001F076F86060002373
:1022280006E0626802EB83020021116001331BB2F1
:10223800B4F902209A42F4DC10BD000010B504463F
:10224800FFF7E5FE2046FFF70BFF2046FFF72AFFC2
:10225800B0F1FF3F08D001462046FFF76CFFDFEDE5
:10226800047A87EE800A10BDBFEE000AFBE700BFC4
:1022780000401C472DE9F04190B000240B940C94C9
:102288000D940E940F940094624B1A6B42F08002E6
:102298001A631A6B02F080020092009A01941A6B7A
:1022A80042F004021A631A6B02F004020192019AC6
:1022B80002941A6B42F001021A631A6B02F00102CF
:1022C8000292029A03941A6B42F008021A631A6B7C
:1022D80002F008020392039A04941A6B42F0020275
:1022E8001A631A6B02F002020492049A05941A6B9C
:1022F80042F010021A631B6B03F010030593059B51
:10230800032506950795089406A94348FFF718F88A
:10231800424F224610213846FFF7F0F8404E224639
:102328004FF6FF713046FFF7E9F822464FF4707117
:102338003C48FFF7E3F8224629463B48FFF7DEF81A
:102348000F230B9302230C930D940E9507230F93E1
:102358000BA93846FEF7F4FF10230B934FF0010842
:10236800CDF830800D940E940BA93846FEF7E8FF9F
:102378004FF6FF750B9511230C930D940E940BA932
:102388003046FEF7DDFF424629463046FFF7B6F8ED
:102398002346FF2201E052080133072B05DC12F027
:1023A800010FF8D10134E4B2F5E707EE904AF8EEF0
:1023B800E77ADFED1E6A86EEA77ADFED1D6AC6EEC4
:1023C800877AB7EE007A37EE877A1A4B1A8807EEC3
:1023D800902AF8EEE77A67EE877AFCEEE77A17EE4E
:1023E800902A1A804FF470730B9301250C950024E2
:1023F8000D940E940BA90B48FEF7A2FF03230B9331
:102408000C950D940E940BA90748FEF799FF10B090
:10241800BDE8F08100380240000802400000024098
:10242800000C0240000402400010024000007A4400
:102438000000C84208000020042304E0F6EE007AF9
:1024480020EE270A013B70EEA07AF4EEC07AF1EE96
:1024580010FAF3D9044A82ED000A07EE903AF8EE32
:10246800E77AC2ED017A704784010020000000007D
:1024780070B52DED028B10EE105AF0EE608AF5EE75
:10248800C00AF1EE10FA0ED42846FEF71DF81EA376
:10249800D3E90023FEF770F8FEF7A0FA08EE100A59
:1024A8000923002612E0DFED1A8AEDE718EE100A7C
:1024B800FEF70AF814A3D3E90023FEF75DF8FEF748
:1024C8008DFA18EE105A08EE100A2346F4EEC88A60
:1024D800F1EE10FA05D85C1EE8D5013E03F10B04B5
:1024E800E4E70C4A156007EE903AF8EEE77AC2ED99
:1024F800017A07EE906AF8EEE77AC2ED027ABDEC4F
:10250800028B70BDAFF3008090819FE53734EE3FBA
:10251800000000008401002000B52DED048B83B07D
:10252800B0EE408AF0EE608AB0EE419A9FED2C6AD8
:1025380060EE869A10EE100AFDF7C6FF26A3D3E9CF
:102548000023FEF719F8FEF749FA07EE900A38EE6D
:10255800676A26EE296A18EE101A00231A460193B4
:1025680006E0019ACDED017A18EE101A38EE468A87
:10257800B4EEC98AF1EE10FA1ADBDDED017AF8EE55
:10258800E77A77EEE87AFDEEE77AF8EEE76A9FED0C
:10259800157A37EE687AF4EE476AF1EE10FAE0D170
:1025A800013BDFED117A77EEE87AFDEEE77AD8E7BE
:1025B8000E48016007EE902AF8EEE77AC0ED017A3E
:1025C80007EE903AF8EEE77AC0ED027A03B0BDEC78
:1025D800048B5DF804FB00BF90819FE53734EE3F24
:1025E8000000003C000000C30000004384010020FC
:1025F800042302E030EE000A013370EEA07AF4EE14
:10260800C07AF1EE10FAF5DA044A82ED000A07EE14
:10261800903AF8EEE77AC2ED017A7047840100201B
:1026280070B52DED028B10EE106AF0EE608A10EE98
:10263800100AFDF749FF1DA3D3E90023FDF79CFF0E
:10264800FEF7CCF908EE100A092400250EE018EE72
:10265800100AFDF739FF15A3D3E90023FDF78CFF16
:10266800FEF7BCF918EE106A08EE100AB4EEE88A14
:10267800F1EE10FA05D801340B2CE8DD0135002401
:10268800E5E7094B1E6007EE904AF8EEE77AC3EDDE
:10269800017A07EE905AF8EEE77AC3ED027ABDECBC
:1026A800028B70BDAFF3008084010020DAE7AD91A2
:1026B8008FF3F03F0000000000B52DED048B83B0D0
:1026C800B0EE408AF0EE608AB0EE419ADFED266AFD
:1026D80060EEA69A10EE100AFDF7F6FE20A3D3E9E5
:1026E8000023FDF749FFFEF779F907EE900A78EE27
:1026F800676A66EEA96A18EE103A0022114601923E
:1027080005E00199019318EE103AB0EE478AB4EE4D
:10271800C98AF1EE10FA10D838EE667ADDED017A42
:10272800F8EEE77A77EEE87AFDEEE77A17EE903A78
:10273800802BE6D101325B42E3E70C48036007EEE9
:10274800901AF8EEE77AC0ED017A07EE902AF8EED3
:10275800E77AC0ED027A03B0BDEC048B5DF804FBA8
:10276800DAE7AD918FF3F03F0000003C84010020D0
:1027780038B52DED048BB0EE409A09EE900AB4EE10
:10278800E00AF1EE10FA41D5F0EE400A9FED3F0A5B
:10279800FFF752FE3E4DD5ED018AFDEEE88AF0EED8
:1027A800490A95ED000AFFF763FE95ED018ABDEE33
:1027B800C88AD5ED027AF8EEE88A78EEA78AFDEEA7
:1027C800E87A17EE904AB0EE491AF8EEE90A95ED64
:1027D800000AFFF7A1FED5ED017A95ED027AB8EE71
:1027E800C88A38EE078ABDEEC87A17EE103A002B71
:1027F80009DB284A13605460FDEEE77AC2ED027ADD
:10280800BDEC048B38BD013C0C33F2E7F0EE400A16
:102818009FED1E0AFFF7ECFE1D4DD5ED018AFDEE7A
:10282800E88AF0EE490A95ED000AFFF7F9FE95ED02
:10283800018ABDEEC88AD5ED027AF8EEE88A78EE0C
:10284800A78AFDEEE87A17EE904AB0EE491AF8EE3C
:10285800E90A95ED000AFFF72FFFD5ED017A95ED0E
:10286800027AB8EEC88A38EE078ABDEEC87A17EE43
:10287800103A002B07DB074A13605460FDEEE77A35
:10288800C2ED027ABCE7013C0C33F4E70000DC43FC
:10289800840100203C010020411E002811DD82B087
:1028A80009E000BF019B5A1E0192002BF9DC084683
:1028B8000139002803DD41F253730193F2E702B0B6
:1028C8007047704770B506461A4A536923F48073F7
:1028D8001B041B0C53610520FFF7DEFF00251AE0DF
:1028E800144A536943F0400353610520FFF7D4FFAE
:1028F800104C636943F08003636176100520FFF78D
:10290800CBFF636923F080031B041B0C6361052064
:10291800FFF7C2FF0135072D0ADC16F0010FDFD1E2
:10292800044A536923F040031B041B0C5361DCE782
:1029380070BD00BF0004024008B51748FEF7B4FB9D
:1029480080B2164B18805B88B3F5806F05D2144AA5
:102958001288801A134A22F813005A1CB2F5806FA5
:1029680013DA13460D4A53800C4A1388D2889342CF
:1029780001D90A4AD3800A4A5288934201D2084AA6
:1029880053801220FEF7D0FC08BD044B01221A71B7
:102998001D20FEF7A7FCE7E790010020D4000020E7
:1029A80008000020D801002008B50348FEF7F8FA0F
:1029B800024B00221A6108BD90010020000400406B
:1029C80070B485B0264B1B6903F01F0513F0010F87
:1029D80019D1002322E00133032B16DC214A02EB34
:1029E8008302946894E8070004AE06E90700039A96
:1029F8001268002AEFD00298426924680121A14098
:102A08000A434261E7E70023E6E7154A136923F022
:102A180001031B041B0C1361DBE71346032B1BDCB0
:102A28005A1C45FA02F111F0010FF6D00D4901EBDD
:102A380083039B685E6870691968012303FA01F1D2
:102A48004FF6FF7461400140716105480169934088
:102A580063400B400361E0E705B070BC704700BFFE
:102A680000080040D400002010B5064CE06BFFF7CA
:102A780029FFE06BFFF726FF034A536943F480738D
:102A8800536110BD080000200004024000B587B063
:102A9800002301931B4A516C41F480715164526CBC
:102AA80002F480720192019A0293039304930593AE
:102AB8001548164A02604FF4803242608360036111
:102AC80083610362C362124A8262C3600122C261E7
:102AD80003634261FEF73AFA68B90A2302930123B5
:102AE80003930723049302A90748FEF7E1FA28B9DC
:102AF80007B05DF804FBFFF7B7FFEEE7FFF7B4FF99
:102B0800F6E700BF00380240900100200020014095
:102B18000100000F30B58FB000240A940B940C9478
:102B28000D940894099401940294039404940594D0
:102B380006940794304D314B2B60FEF7E5FC4009B5
:102B48002F4BA3FB0030C0096860AC604FF47A7368
:102B5800EB602C612846FFF751F9002833D10EA904
:102B68004FF4805341F8103D2348FFF763F868BBE2
:102B78002148FFF75CF960BB00230893099308A973
:102B88001D48FFF71BFA38BB0022019202920392FC
:102B9800059201A91848FFF795F900BB04220DEB2F
:102BA80002011548FFF78EF9E0B9082201A9124879
:102BB800FFF788F9C8B90C2201A90F48FFF782F975
:102BC800B0B90FB030BDFFF74FFFC8E7FFF74CFFB4
:102BD800CEE7FFF749FFCFE7FFF746FFD4E7FFF758
:102BE80043FFDBE7FFF740FFDFE7FFF73DFFE2E7E3
:102BF800FFF73AFFE5E700BF0001002000080040AA
:102C0800C55A7C0A30B58FB0002400943B4B1A6C2F
:102C180042F002021A641B6C03F002030093009B4B
:102C28000A940B940C940D940894099401940294BA
:102C380003940494059406940794314D314B2B600A
:102C48006C60AC60FEF760FCFEF75EFC2E4BA3FBED
:102C58000030C00BE8602C612846FFF7CFF8002849
:102C680033D10EA94FF4805341F8103D2448FEF7A4
:102C7800E1FF68BB2248FFF7DAF860BB002308933E
:102C8800099308A91E48FFF799F938BB0022019259
:102C980002920392059201A91948FFF713F900BBA4
:102CA80004220DEB02011648FFF70CF9E0B90822DF
:102CB80001A91348FFF706F9C8B90C2201A9104861
:102CC800FFF700F9B0B90FB030BDFFF7CDFEC8E788
:102CD800FFF7CAFECEE7FFF7C7FECFE7FFF7C4FE50
:102CE800D4E7FFF7C1FEDBE7FFF7BEFEDFE7FFF73C
:102CF800BBFEE2E7FFF7B8FEE5E700BF0038024099
:102D080048010020000400405917B7D100B595B01C
:102D18003422002107A800F0FFFA0023029303934E
:102D280004930593069300931F4A116C41F0805158
:102D38001164126C02F080520092009A01931B4AAF
:102D4800116841F440411160126802F44042019256
:102D5800019A0222079201210A9110210B910D92EA
:102D68000E9308230F9364231093119212921392D7
:102D780007A8FEF7C9FC88B90F230293022303931F
:102D8800002304934FF4805205920693032102A86E
:102D9800FEF70EFC28B915B05DF804FBFFF764FEDA
:102DA800EAE7FFF761FEF6E70038024000700040EE
:102DB8002DE9F0419AB0AD4D6B6B0E9343F00103D2
:102DC8000F93AB6B109343F001031193EB6B1293CA
:102DD8002B6C139343F0010314936B6C159343F01E
:102DE80001031693EB6A179343F0010318932B6BB7
:102DF8001993FDF7E7FFFFF789FFFFF73BFAFFF7A6
:102E080045FEFFF787FEFFF7FDFE09230B93984E5B
:102E18000C96984B0D93984B0BAA9A600024059436
:102E2800964A06929649079105A9D96001270897FD
:102E38000992944A0A9208AA1A61686A3843FFF705
:102E480041FD686A3843FFF73DFD736943F48073B9
:102E580073614FF47A70FFF71FFD2046FFF732FDCC
:102E68002046FFF72FFD736943F480737361224690
:102E780021461D20FEF7F6F93A4639461E20FEF790
:102E8800F1F91E20FEF722FA1D20FEF71FFA122084
:102E9800FEF71CFA7C4D2846FEF7BFFE7B48FEF77E
:102EA800BCFE21462846FFF74BF804212846FFF7C9
:102EB80047F808212846FFF743F80C212846FFF772
:102EC8003FF89FED730A4FF4806101A8FFF798F966
:102ED80040F2EE250D9B1D604FF47A70FFF7DCFC85
:102EE8000D9B1C60079B1D604FF47A70FFF7D4FCA4
:102EF800079B1C600A9B1D604FF47A70FFF7CCFC9F
:102F08000A9B1C60E9E0DFED630A0120FFF730FC53
:102F1800614B1A681AA901EB820252F8304C5968C1
:102F2800524A02EB81025568D3ED027AF8EEE77A4D
:102F3800B7EE007AF4EEC77AF1EE10FA20DD00233E
:102F48000A9A13600D9A136017EE900AFDF7BCFAFF
:102F58000022524BFDF710FB0022514BFDF70CFBF2
:102F6800FDF71CFD079B18602846FFF7ABFC2046C1
:102F7800FFF7A8FC3E4A536943F480735361A0E00D
:102F8800BFEE007AF4EEC77AF1EE10FA09D40A9B84
:102F98004FF47A721A6000230D9A1360079A13602F
:102FA800E2E700260A9B1E60F1EE677A17EE900AA8
:102FB800FDF78AFA0022394BFDF7DEFA0022384B7A
:102FC800FDF7DAFAFDF7EAFC0D9B1860079B1E6017
:102FD800CAE7092B02D9B8F1000F31D00020FFF75A
:102FE80071FC002F3BD12F4B83FB05239B1003EB78
:102FF80083035A00AB1A1D4A02EB83035868FFF794
:1030080061FC1B4A536943F4807353619620FFF7B0
:1030180043FC2346002B49D0234CA4FB0324E4089B
:10302800B6FBF4F2B6FBF3F522B1B8F1000F01D00C
:103038004FF00008002DCCD0002FCAD00027C8E7D9
:10304800184B83FB02139B1003EB83035900531A9D
:10305800064A02EB83039888FFF734FCC1E7002097
:10306800FFF730FCCDE700274FE000BF0800002045
:103078000004024034080040D40000200010024040
:10308800380800403C0800400001002048010020AA
:10309800CDCC4C3D0000DC433C0100200000903FBB
:1030A80000408F4067666666CDCCCCCC0020FFF729
:1030B80009FC0020FFF706FC154A536943F48073A6
:1030C8005361144B00225A801A71DA80124B4FF662
:1030D800FF725A801D20FEF7F9F80E4B1B79002B62
:1030E800FBD00E4901A8FFF7A9F8DFED0D7AB4EE81
:1030F800E70AF1EE10FA3FF706AFBCEEC00A10EE91
:10310800103A9EB2002EAED00127B846054B81E793
:1031180000040240D400002008000020D80100204C
:103128000000484200CA9A3B82B0002100910B4B34
:103138005A6C42F480425A645A6C02F480420092FB
:10314800009A01911A6C42F080521A641B6C03F0C9
:1031580080530193019B02B0704700BF00380240C2
:1031680000B589B00023039304930593069307934E
:10317800026803F1804303F590339A4202D009B004
:103188005DF804FB0021019103F58C335A6C42F47D
:1031980080725A645A6C02F480720192019A029108
:1031A8001A6B42F004021A631B6B03F004030293C8
:1031B800029B03230393049303A90248FEF7C0F874
:1031C800DDE700BF0008024002680E4B9A4200D0BB
:1031D800704700B583B00021019103F50C331A6CD8
:1031E80042F004021A641B6C03F004030193019B70
:1031F8000A461E20FEF736F81E20FEF767F803B0D1
:103208005DF804FB000800407047FEE7FEE7FEE7B4
:10321800FEE770477047704708B5FDF7EDFD08BD3C
:103228000F49D1F8883043F47003C1F888300D4B4A
:103238001A6842F001021A60002098601A6822F0A9
:10324800847222F480321A60074A5A601A6822F49B
:1032580080221A60D8604FF000638B60704700BF0F
:1032680000ED00E00038024010300024DFF834D0D0
:10327800002103E00C4B5B58435004310B480C4BC6
:1032880042189A42F6D30B4A02E0002342F8043B64
:10329800094B9A42F9D3FFF7C3FF00F011F8FFF783
:1032A80087FD7047000004206434000800000020F7
:1032B800B8000020B8000020DC090020FEE700006C
:1032C80070B50D4E0D4CA41BA4100025A54209D1C4
:1032D8000B4E0C4C00F0A2F8A41BA4100025A5422C
:1032E80005D170BD56F8253098470135EEE756F8F8
:1032F800253098470135F2E75C3400085C34000853
:103308005C34000860340008024B0146186800F07D
:103318000BB800BF5400002002440346934200D17A
:10332800704703F8011BF9E770B5CD1C25F00305BC
:1033380008350C2D38BF0C25002D064601DBA942A7
:1033480003D90C233360002070BD00F057F8214AE0
:103358001468214691B9204C23681BB9304600F007
:103368003DF820602946304600F038F8431C24D147
:103378000C233360304600F042F8E4E70B685B1B2F
:1033880018D40B2B0FD90B60CD50CC18304600F059
:1033980036F804F10B00231D20F00700C31AD3D020
:1033A8005A42E250D0E78C424B6816BF6360136004
:1033B8000C46EBE70C464968CCE7C41C24F0030430
:1033C800A04205D0211A304600F008F80130CFD0CD
:1033D8002560DBE7F0000020F400002038B5064C3B
:1033E800002305460846236000F00AF8431C02D172
:1033F800236803B12B6038BDD80900207047704797
:10340800044A05491368002B08BF0B46184410608E
:1034180018467047F8000020E0090020F8B500BF02
:10342800F8BC08BC9E467047F8B500BFF8BC08BC9D
:043438009E467047F5
:10343C000000000000000000010203040607080958
:08344C0000000000010203046E
:0834540060D6FF7F01000000BB
:04345C00ED01000876
:04346000C901000896
:1034640001000000100000000008FFFFFC00000045
:1034740060000000DA000000F200000066000000B6
:10348400B6000000BE000000E0000000FE000000E6
:10349400E6000000EE0000003E0000009C0000007A
:1034A4007A0000009E0000008E000000F60000007C
:1034B4000024F40058000020000000000000000078
:1034C40000000000000000000000000000000000F8
:1034D40000000000000000000000000000000000E8
:1034E40000000000000000000000000000000000D8
:1034F40000000000000000000000000000000000C8
:1035040000000000000000000000000000000000B7
:083514000000000000000000AF
:040000050800327548
:00000001FF
