:020000040800F2
:1000000040170020D9010008251C0008A51700088A
:10001000211C0008E10400088F21000800000000F6
:10002000000000000000000000000000631C000849
:10003000E504000800000000611C0008651C0008C1
:10004000F3010008F3010008F3010008F3010008C0
:10005000F3010008F3010008F3010008F3010008B0
:10006000F3010008F3010008F3010008F3010008A0
:10007000F3010008F3010008F3010008F301000890
:10008000F3010008F3010008E5020008F30100088D
:10009000F3010008F3010008F3010008F301000870
:1000A000F3010008F3010008F3010008F301000860
:1000B000F3010008851D00089D1D0008F3010008DC
:1000C000F3010008F3010008F3010008F301000840
:1000D000F3010008F3010008F3010008F301000830
:1000E000F3010008F3010008F3010008F301000820
:1000F000F3010008F3010008F3010008F301000810
:1001000000000000F3010008F3010008F3010008FB
:100110000000000000000000F3010008F3010008E7
:10012000F3010008F3010008F3010008F3010008DF
:10013000F3010008F3010008F3010008F3010008CF
:10014000F3010008F3010008F3010008F3010008BF
:10015000F3010008F3010008F3010008F3010008AF
:10016000F3010008F3010008000000000000000097
:10017000000000000000000000000000000000007F
:10018000F3010008F3010008000000000000000077
:10019000F3010008F3010008000000000000000067
:1001A000000000000000000000000000000000004F
:1001B000F30100080000000000000000F301000847
:1001C000F3010008DFF80CD000F07AF8004800478F
:1001D000DD240008401700200648804706480047F5
:1001E000FEE7FEE7FEE7FEE7FEE7FEE7FEE7FEE7E7
:1001F000FEE7FEE7211D0008C50100082DE9F05FBC
:100200000546002092469B46884606468146402485
:100210001BE0284641464746224600F041F8534637
:100220005A46C01A914110D311461846224600F092
:1002300028F82D1A67EB01084F46224601200021BD
:1002400000F01FF817EB00094E41201EA4F1010435
:10025000DFDC484631462A464346BDE8F09FD2B22D
:1002600001E000F8012B491EFBD270470022F6E79F
:1002700010B513460A4604461946FFF7F0FF20461C
:1002800010BD202A04DB203A00FA02F1002070475A
:100290009140C2F1200320FA03F3194390407047C4
:1002A000202A04DB203A21FA02F00021704721FACB
:1002B00002F3D040C2F12002914008431946704732
:1002C000064C074D06E0E06840F0010394E80700A3
:1002D00098471034AC42F6D3FFF778FFD0280008D7
:1002E000F028000810B51F4800F0D8F91E49088012
:1002F0001E480088B0F5006F0ADA084600881C49DD
:100300000988401A00B21B49184A128821F81200C5
:1003100016480088401CB0F5006F05DA13480088C5
:10032000401C1249088005E00120134908701D2077
:1003300000F0BAFC0C48008810490988884203DDA7
:10034000094800880D490880074800880C49098839
:10035000884203DA0448008809490880122000F026
:1003600095FC10BD6C0000204800002050000020CB
:10037000520000203C0100204E0000204A000020D6
:100380004C00002054494A6822F440324A604A68CE
:1003900043681A434A600268526822F48072036814
:1003A0005A6002685368026943EA022203685A608D
:1003B0000268526822F0407203685A60026852680C
:1003C00083681A4303685A600268926822F40062E4
:1003D00003689A6002689268C3681A4303689A6067
:1003E0003E4B826A9A4218D00268926822F070628C
:1003F00003689A6002689268836A1A4303689A6085
:100400000268926822F0405203689A60026892681B
:10041000C36A1A4303689A600BE00268926822F08C
:10042000706203689A600268926822F04052036822
:100430009A600268926822F0020203689A60026879
:100440009368826943EA420203689A60026AA2B131
:100450000268526842F4006203685A600268526897
:1004600022F4604203685A6002685368426A521E6E
:1004700043EA423203685A6005E00268526822F497
:10048000006203685A600268D26A22F4700203684C
:10049000DA620268D36A828B521E43EA0252036810
:1004A000DA620268926822F4007203689A60026855
:1004B0009368026B43EA422203689A60026892687A
:1004C00022F4806203689A6002689368426943EA92
:1004D000822203689A607047002301400100000FE8
:1004E00000BFFEE77047000000B50749886B02F0C7
:1004F000A5F90549886B02F0A1F90448006840F4A9
:1005000080700249086000BD000000201404024011
:1005100038B502460020009000BF92F83C00012848
:1005200001D1022038BD012082F83C0000BF0868DC
:10053000092816D91068C0680C780A3C04EB4405F9
:100540000724AC40A0431468E0600C780A3C04EB3C
:1005500044048868A0401468E46820431468E0609C
:1005600013E0106800690C7804EB44050724AC40E4
:10057000A043146820610C7804EB44048868A04010
:10058000146824692043146820614868072817D23A
:100590001068406B0C79641E04EB84051F24AC408A
:1005A000A04314686063088880B20C79641E04EB71
:1005B0008404A0401468646B20431468606331E0D5
:1005C00048680D2817D21068006B0C79E41F04EB03
:1005D00084051F24AC40A04314682063088880B2BF
:1005E0000C79E41F04EB8404A0401468246B2043BE
:1005F0001468206316E01068C06A0C790D3C04EBA7
:1006000084051F24AC40A0431468E062088880B2CF
:100610000C790D3C04EB8404A0401468E46A204388
:100620001468E062194B1A4C1068A04206D10868A1
:10063000122803D1586840F480005860144C1068A8
:10064000A0421CD10868102802D00868112816D1D1
:10065000586840F400005860086810280FD10D4811
:1006600000680D4CB0FBF4F000EB800040000090FF
:1006700002E00098401E009000980028F9D100BFC9
:10068000002082F83C0000BF00BF4BE70023014080
:10069000002001406000002040420F000146086831
:1006A000C06C704770B5044600250CB9012070BDC0
:1006B0001549A06A884200D000BF206C30B90020E4
:1006C000606484F83C00204600F020F8206C00F0C4
:1006D000100088B9206C20F4885040F0020020649B
:1006E0002046FFF74FFE00206064206C20F00200DF
:1006F00040F00100206400E0012500BF002084F8E4
:100700003C0000BF2846D2E70100000F10B586B0BC
:100710000446142101A8FFF7A9FD19492068884261
:100720002BD100BF002000901648006840F4807074
:10073000144908600846006800F48070009000BF0B
:1007400000BF00BF002000900E481438006840F041
:1007500004000C49143908600846006800F00400E1
:10076000009000BF00BF06200190032002900020EF
:10077000039001A9044800F011F906B010BD000073
:1007800000200140443802400008024008B50146FC
:100790000020009000BF91F83C00012801D1022008
:1007A00008BD012081F83C0000BF0868806800F0A7
:1007B0000100A0B90868806840F001000B689860EB
:1007C0002E4800682E4BB0FBF3F000EB4000009089
:1007D00002E00098401E009000980028F9D10868B7
:1007E000806800F00100002845D0086C40F20163E9
:1007F000984340F4807008640868406800F48060A2
:1008000028B1086C20F4005040F480500864086C53
:1008100000F4805020B1486C20F00600486401E0EC
:100820000020486400BF002081F83C0000BF154A4A
:100830006FF022000B681860506800F01F0058B974
:100840000868806800F04050A8B90868806840F0E7
:1008500080400B6898600EE00B4B086898420AD104
:100860000868806800F0405028B90868806840F047
:1008700080400B689860002092E700006000002034
:1008800040420F00002301400020014008B501460E
:100890000020009000BF91F83C00012801D1022007
:1008A00008BD012081F83C0000BF0868806800F0A6
:1008B0000100A0B90868806840F001000B689860EA
:1008C00031480068314BB0FBF3F000EB4000009082
:1008D00002E00098401E009000980028F9D10868B6
:1008E000806800F0010000284BD0086C40F20163E2
:1008F000984340F4807008640868406800F48060A1
:1009000028B1086C20F4005040F480500864086C52
:1009100000F4805020B1486C20F00600486401E0EB
:100920000020486400BF002081F83C0000BF184A46
:100930006FF022000B68186008684068154B184378
:100940000B685860506800F01F0058B9086880684C
:1009500000F04050A8B90868806840F080400B68FB
:1009600098600EE00C4B086898420AD108688068CD
:1009700000F0405028B90868806840F080400B685B
:10098000986000208CE700006000002040420F00CB
:10099000002301402000000400200140F8B5024679
:1009A0000B460025002400200021D7E0012606FA8E
:1009B00001F51E6806EA0504AC4273D15E68022E9A
:1009C00002D05E68122E13D1CF0802F1200656F82D
:1009D00027004E07F70E0F26BE40B0434F07FF0E0D
:1009E0001E69BE403043CF0802F1200646F82700BA
:1009F00010684F000326BE40B0431E7906F0030680
:100A00004F00BE40304310605E68012E08D05E6823
:100A1000022E05D05E68112E02D05E68122E13D110
:100A200090684F000326BE40B0434F00DE68BE40D2
:100A300030439060506801268E40B0431E79C6F363
:100A400000168E4030435060D0684F000326BE40F1
:100A5000B0434F009E68BE403043D0605E6806F0F1
:100A60008056B6F1805F78D100BF002600963D4EDB
:100A7000366846F480463B4F3E603E46366806F494
:100A80008046009600BF00BF374E8F0856F82700FB
:100A90008E07370F0F26BE40B043344EB24202D10C
:100AA00000261FE059E0324EB24201D1012619E082
:100AB000304EB24201D1022614E02F4EB24201D193
:100AC00003260FE02D4EB24201D104260AE02C4E3F
:100AD000B24201D1052605E02A4EB24201D10626D6
:100AE00000E007268F073F0FBE4030431E4E8F08A1
:100AF00046F82700244E3068A0435E6806F480362E
:100B0000B6F5803F00D120431F4E3060361D30685F
:100B1000A0435E6806F40036B6F5003F00D12043DE
:100B2000194E361D3060361D3068A0435E6806F4ED
:100B30008016B6F5801F00D12043134E0836306072
:100B4000361D3068A0435E6806F40016B6F5001F37
:100B500000D120430C4E0C363060491C1029FFF4A4
:100B600025AFF8BD4438024008380140000002407B
:100B70000004024000080240000C02400010024045
:100B80000014024000180240003C01400AB181619B
:100B900001E00B0483617047014800687047000062
:100BA00054000020034800680349097808440149BB
:100BB00008607047540000205C00002010B50D480C
:100BC000006840F400700B4908600846006840F473
:100BD000806008600846006840F480700860032068
:100BE00000F0BCF8002000F007F800F02BF800201F
:100BF00010BD0000003C024070B504460E4800786D
:100C00004FF47A71B1FBF0F00C490968B1FBF0F5D3
:100C1000284600F0F3FB08B1012070BD102C07D26C
:100C200000222146501E00F05AF80548046001E0F9
:100C30000120F2E70020F0E75C00002060000020C7
:100C40005800002008B500BF002000900E48006842
:100C500040F480400C4908600846006800F4804079
:100C6000009000BF00BF00BF00200090081F006878
:100C700040F08050091F08600846006800F080506E
:100C8000009000BF00BF08BD4438024000BF00F024
:100C90001F0201219140034A430942F8231000BF7B
:100CA0007047000080E200E000BF00F01F02012159
:100CB0009140034A430942F8231000BF70470000E7
:100CC00080E100E000BF00F01F02012191404209D5
:100CD000920002F1E022C2F8001100BF70472DE936
:100CE000F05F80460D461646002700F09DFF074640
:100CF00039462A46334601F00700C0F1070ABAF127
:100D0000040F02D94FF0040A01E0C0F1070AD146EE
:100D100000F1040ABAF1070F02D24FF0000A01E015
:100D2000A0F1030AD4464FF0010A0AFA09FAAAF11F
:100D3000010A0AEA020A0AFA0CFA4FF0010B0BFA4E
:100D40000CFBABF1010B0BEA030B4AEA0B04214647
:100D5000404600F071FFBDE8F09F000000BF00F0CA
:100D60000702064B19684FF6FF031940044B0B436B
:100D700043EA0221014B196000BF70470CED00E00F
:100D80000000FA0570B504460D460CB9012070BD8F
:100D90005848006800F00F00A84209D255490D706C
:100DA0000846006800F00F00A84201D00120EEE7DD
:100DB000207800F0020002281DD1207800F0040005
:100DC000042805D14C48006840F4E0504A490860C6
:100DD000207800F00800082805D14748006840F452
:100DE0006040454908604448006820F0F000A16870
:100DF000084341490860207800F00100A8B360680A
:100E0000012807D13C4808380068C0F34040B8B911
:100E10000120BCE76068022802D06068032807D17F
:100E2000354808380068C0F3406048B90120AEE793
:100E3000314808380068C0F3400008B90120A6E72F
:100E40002D48006820F00300616808432A490860C3
:100E5000FFF7A2FE064609E0FFF79EFE801B41F267
:100E60008831884202D9032091E707E022480068D0
:100E700000F00C006168B0EB810FEDD11D480068F7
:100E800000F00F00A84209D91A490D700846006801
:100E900000F00F00A84201D0012078E7207800F090
:100EA0000400042807D11448006820F4E050E168E9
:100EB000084311490860207800F00800082808D18C
:100EC0000D48006820F46040216940EAC1000A49E9
:100ED000086000F017F808490968C1F30311074AD0
:100EE000515CC840064908600020FFF785FE0020DD
:100EF0004DE70000003C024008380240B8280008D6
:100F0000600000202DE9F047002400250026A146BE
:100F10002548006800F00C0020B1042805D00828FE
:100F20003AD105E0DFF8849039E0DFF8849036E0CC
:100F30001D48001F006800F03F041B48001F0068A8
:100F400000F4800078B11A481749091F0968C1F3F5
:100F50008811A0FB01700146224600233846FFF7A6
:100F60004DF905460EE011480F49091F0968C1F304
:100F70008811A0FB01700146224600233846FFF786
:100F80003DF905460848001F0068C0F30140401CB9
:100F90004600B5FBF6F902E0DFF8109000BF00BF95
:100FA0004846BDE8F0870000083802400024F400FD
:100FB00040787D01F8B504460025207800F0010056
:100FC000002874D0F748006800F00C0004280DD009
:100FD000F448006800F00C00082813D1F148001F05
:100FE000006800F48000B0F5800F0BD1ED480838A0
:100FF0000068C0F34040002859D06068002856D1EE
:101000000120F8BD00BF6068B0F5803F08D1E54819
:101010000838006840F48030E249083908601EE072
:101020006068B0F5A02F0DD1DE480838006840F4A4
:101030008020DC49083908600846006840F48030A8
:1010400008600CE0D7480838006820F48030D549A3
:10105000083908600846006820F48020086000BF56
:10106000606890B1FFF798FD054606E0FFF794FD34
:10107000401B642801D90320C3E7CA480838006828
:10108000C0F340400028F1D011E0FFF785FD054690
:1010900006E0FFF781FD401B642801D90320B0E77B
:1010A000C04808380068C0F340400028F1D12078DB
:1010B00000F0020002285FD1BA48006800F00C007E
:1010C00058B1B848006800F00C0008281CD1B54899
:1010D000001F006800F48000B0B9B248083800680A
:1010E000C0F3400020B1E068012801D0012088E76A
:1010F000AC480838006820F0F800216940EAC100D7
:10110000A8490839086037E0E06800B30120A64923
:101110000860FFF741FD054606E0FFF73DFD401B77
:10112000022801D903206CE79E4808380068C0F304
:1011300040000028F1D09B480838006820F0F800F3
:10114000216940EAC10097490839086014E000208D
:1011500095490860FFF720FD054606E0FFF71CFDF6
:10116000401B022801D903204BE78E48083800684D
:10117000C0F340000028F1D1207800F008000828D2
:101180002CD16069A8B1012088490860FFF704FDEF
:10119000054606E0FFF700FD401B022801D90320A9
:1011A0002FE780486C300068C0F340000028F1D081
:1011B00014E000207D490860FFF7EEFC054606E0DC
:1011C000FFF7EAFC401B022801D9032019E7754804
:1011D0006C300068C0F340000028F1D1207800F0A6
:1011E0000400042870D100266E483830006800F0F2
:1011F000805090B900BF002000906A4838300068E5
:1012000040F080506749383108600846006800F0B7
:101210008050009000BF00BF01266548006800F4C0
:101220008070B0B96248006840F48070604908601E
:10123000FFF7B2FC054606E0FFF7AEFC401B0228B4
:1012400001D90320DDE65A48006800F480700028C8
:10125000F2D000BFA068012808D152486830006869
:1012600040F001004F49683108601DE0A068052882
:101270000DD14C486830006840F00400494968319D
:1012800008600846006840F0010008600CE045482E
:101290006830006820F00100424968310860084663
:1012A000006820F00400086000BFA068A8B1FFF744
:1012B00073FC054609E0FFF76FFC401B41F28831E3
:1012C000884202D903209CE626E036486830006850
:1012D000C0F340000028EED013E0FFF75DFC0546A8
:1012E00008E0FFF759FC401B41F28831884201D9E0
:1012F000032086E62B4868300068C0F340000028D1
:10130000EFD1012E07D127483830006820F08050F7
:1013100024493831086000BFA069D8B3214800686B
:1013200000F00C00082861D0A069022849D10020F3
:101330001D490866FFF730FC054606E0FFF72CFC68
:10134000401B022801D903205BE6164808380068D4
:10135000C0F340600028F1D1D4E907010843616A75
:1013600040EA81110122A06AC2EB500041EA00412B
:101370002C20005D41EA00613020005D41EA0070F0
:101380000849091F0860012007490866FFF704FCA7
:1013900005460FE02CE0FFF7FFFB401B022809D9B0
:1013A00003202EE60838024000004742800E4742E4
:1013B000007000400F480068C0F340600028EAD089
:1013C00016E000200C490866FFF7E6FB054606E03C
:1013D000FFF7E2FB401B022801D9032011E6054874
:1013E0000068C0F340600028F2D101E0012008E667
:1013F000002006E6003802400000474270B504466F
:101400002546681EB0F1807F01D301200FE0681EE1
:101410004FF0E02148610F214FF0FF3000F00CFC4D
:1014200000204FF0E021886107200861002070BD96
:10143000024600BF92F83800012801D1022070470F
:10144000012082F8380000BF022082F839001068BD
:10145000406820F0700013685860106840680B689E
:101460001843136858601068806820F08000136883
:101470009860106880684B68184313689860012072
:1014800082F8390000BF002082F8380000BF00BF9A
:10149000D5E710B504460CB9012010BD94F8390009
:1014A00028B9002084F83800204600F00DF802200A
:1014B00084F83900211D206800F0C8FC012084F860
:1014C00039000020E9E7000038B504460E492068DD
:1014D000884217D100BF002000900C48006840F0FF
:1014E00004000A4908600846006800F00400009003
:1014F00000BF00BF002211461E20FFF7F0FB1E2098
:10150000FFF7E0FB38BD0000000800404038024013
:1015100001460868C06840F001000A68D0600868A9
:10152000006840F001000A681060002070472DE953
:10153000F04104460D46002600BF94F8380001280B
:1015400002D10220BDE8F081012084F8380000BFFC
:10155000022084F839002068866826F0770626F491
:101560007F4620688660286850283BD00CDC202805
:1015700060D004DC002853D0102865D155E0302815
:101580005DD0402860D141E0602835D070280DD072
:10159000B0F5805F03D0B0F5005F55D115E020684D
:1015A000806820F00700216888604EE0D5E90213CA
:1015B0006A68206800F0CAFC2068866826F0770612
:1015C00046F07706206886603FE0D5E902136A6836
:1015D000206800F0BBFC2068806840F480402168EF
:1015E000886032E0EA686968206800F0A5FD502153
:1015F000206800F0B7FC28E0EA686968206800F01D
:10160000B0FD6021206800F0ADFC1EE0EA6869686A
:10161000206800F091FD4021206800F0A3FC14E058
:101620000021206800F09EFC0FE01021206800F0EF
:1016300099FC0AE02021206800F094FC05E03021AC
:10164000206800F08FFC00E000BF00BF012084F89C
:10165000390000BF002084F8380000BF00BF71E7E8
:1016600070B504460E46154600BF94F838000128B0
:1016700001D1022070BD012084F8380000BF022093
:1016800084F8390035B1042D09D0082D0CD00C2D6B
:1016900014D10EE03146206800F06EFC0FE03146B8
:1016A000206800F0A1FC0AE03146206800F0D8FC78
:1016B00005E03146206800F00FFD00E000BF00BFEC
:1016C000012084F8390000BF002084F8380000BFF2
:1016D00000BFCFE710B504460CB9012010BD94F847
:1016E000390028B9002084F83800204600F00CF8B2
:1016F000022084F83900211D206800F0A7FB01209A
:1017000084F839000020E9E77047000030B504464E
:101710000D4635B1042D0BD0082D10D00C2D1CD149
:1017200014E02068C06840F002002168C86015E03D
:101730002068C06840F004002168C8600EE020689E
:10174000C06840F008002168C86007E02068C068F1
:1017500040F010002168C86000E000BF00BF012217
:101760002946206800F0E4FB0C492068884203D039
:101770000B492068884201D1012000E0002028B1F7
:101780002068406C40F4004021684864206800688C
:1017900040F0010021680860002030BD00000140D9
:1017A0000004014000BFFEE700B585B000BF002087
:1017B00000901E48006840F480701C49086008468C
:1017C000006800F48070009000BF00BF002001900E
:1017D0000290039004901648164908604FF4803038
:1017E0004860002113488160016181610162C1622A
:1017F000114981620021C1600121C16100210163A1
:1018000001214161FEF74EFF08B1FEF76DFE0A208F
:101810000190012002900720039001A90548FEF7DE
:1018200077FE08B1FEF760FE05B000BD4438024007
:10183000002001406C0000200100000F70B52DED6C
:10184000028B8CB0142107A8FEF710FD00BF00200A
:1018500001907448006840F08000724908600846B2
:10186000006800F08000019000BF00BF00BF0020B2
:1018700001900846006840F00400086008460068CF
:1018800000F00400019000BF00BF00BF00200190E5
:101890000846006840F0010008600846006800F053
:1018A0000100019000BF00BF00BF0020019008466A
:1018B000006840F0080008600846006800F0080072
:1018C000019000BF00BF00BF0020019008460068E3
:1018D00040F0020008600846006800F00200019035
:1018E00000BF00BF00BF002001900846006840F024
:1018F000100008600846006800F01000019000BF6A
:1019000000BF0320029003900020049002A94648E3
:10191000FFF744F8002210214448FFF737F900226E
:101920004FF6FF714248FFF731F900224FF4707112
:101930004048FFF72BF9002203213F48FFF726F923
:101940000F200790022008900020099003200A90A1
:1019500007200B9007A93548FFF720F810200790C3
:1019600001200890002009900A9007A92F48FFF74E
:1019700015F84FF6FF70079011200890002009908D
:101980000A9007A92A48FFF709F84FF6FF750122C8
:1019900029462748FFF7FAF8EEB200249FED278A80
:1019A000002006E006F0010109B9611CCCB27610F6
:1019B000401C0828F6DB00EE104AB8EE400AC8EEDC
:1019C000000A9FED1F1A81EE200AF7EE000A70EE62
:1019D000200A1C48008800EE100AB8EE400A20EEEB
:1019E000800ABCEEC00A10EE100A164908804FF4B7
:1019F0007070079001200890002009900A9007A9B4
:101A00000C48FEF7CBFF0320079001200890002030
:101A100009900A9007A90848FEF7C0FF0CB0BDEC7A
:101A2000028B70BD303802400008024000000240C6
:101A3000000C0240000402400010024000007A4402
:101A40000000C8425200002030B58FB000BF002017
:101A500001903A48006840F00200384908600846A2
:101A6000006800F00200019000BF00BF00200B9052
:101A70000C900D900E9009900A901C2102A8FEF780
:101A8000F5FB2F482F4908600020486000212D48B1
:101A90008160FFF737FA05464AF6E034FFF732FA7D
:101AA0002146B0FBF1F12748C16000210161FFF739
:101AB000F0FC08B1FEF718FD4FF480500B900BA915
:101AC0002048FFF734FD08B1FEF70EFD1D48FFF773
:101AD00001FE08B1FEF708FD002009900A9009A94F
:101AE0001848FFF7A5FC08B1FEF7FEFC00200290A5
:101AF000039004900690002202A91248FFF7B0FD5F
:101B000008B1FEF7F1FC042202A90E48FFF7A8FD78
:101B100008B1FEF7E9FC082202A90A48FFF7A0FD78
:101B200008B1FEF7E1FC0C2202A90648FFF798FD78
:101B300008B1FEF7D9FC0FB030BD000040380240BC
:101B400000040040F000002000B58DB00020099096
:101B50000A900B900C90079008901C216846FEF7A5
:101B600085FB2C482C490860FFF7CCF92B49B0FBCA
:101B7000F1F0294948600021274881604FF47A71CB
:101B8000C16000210161FFF784FC08B1FEF7ACFCE5
:101B90004FF48050099009A91F48FFF7C8FC08B10D
:101BA000FEF7A2FC1C48FFF795FD08B1FEF79CFC70
:101BB00000200790089007A91748FFF739FC08B1E3
:101BC000FEF792FC00200090019002900490002209
:101BD00069461148FFF744FD08B1FEF785FC042271
:101BE00069460D48FFF73CFD08B1FEF77DFC082271
:101BF00069460948FFF734FD08B1FEF775FC0C2271
:101C000069460548FFF72CFD08B1FEF76DFC0DB0E5
:101C100000BD000000080040B4000020A0860100C4
:101C200000BFFEE77047000002480068C0F30220D2
:101C3000704700000CED00E010B5002807DA0A0735
:101C4000140E054A00F00F031B1FD45403E00A07CB
:101C5000130E024A135410BD18ED00E000E400E03A
:101C60007047704710B5FEF79DFF10BD00B593B0EB
:101C7000342106A8FEF7FAFA142101A8FEF7F6FAB5
:101C800000BF002000902448006840F080502249A6
:101C900008600846006800F08050009000BF00BF58
:101CA00000BF002000901D48006840F440401B49E0
:101CB00008600846006800F44040009000BF00BF84
:101CC000022006900120099010200A9002200C901A
:101CD00000210D9108210E9164210F910221109194
:101CE0001191129106A8FFF765F908B1FEF7FCFB08
:101CF0000F20019002200290002003904FF48050AA
:101D0000049000200590032101A8FFF73BF808B1DB
:101D1000FEF7EAFB13B000BD4038024000700040FF
:101D20001448006840F470001249086012480068C6
:101D300040F001001049086000200F490831086098
:101D40000D4800680D4908400B4908600C48091D02
:101D50000860081F006820F48020091F0860002028
:101D600005490C3108604FF0006002498039086075
:101D70007047000088ED00E000380240FFFFF6FEEB
:101D80001030002410B50348FEF780FD0020024902
:101D9000086010BD6C000020100400403EB52948CA
:101DA000006800F01F0101F00100F8B1002014E00C
:101DB000254A52F820401CCC8DE81C00029A12687B
:101DC00052B1019A5269204B53F820301C780123FC
:101DD000A3401A43019B5A61401C0428E8DB1948C0
:101DE00000684FF6FE721040164A1060002026E090
:101DF000431C41FA03F202F00102FAB1124B53F80C
:101E000020305B685C69104B53F820301D7801234B
:101E1000AB404FF6FF756B401C400B4B53F8203026
:101E20005B685C61074B1C68431C012505FA03F3E2
:101E30004FF6FF756B401C40024B1C60401C042891
:101E4000D6DB3EBD100800402C01002000220268B5
:101E50002C4B98420ED0B0F1804F0BD02A4B9842B9
:101E600008D02A4B984205D0294B984202D0294BE2
:101E7000984201D1012300E000231BB122F070023F
:101E80004B681A431F4B984220D0B0F1804F1DD0B1
:101E90001D4B98421AD01D4B984217D01C4B9842AC
:101EA00014D01C4B984211D01B4B98420ED01B4BA8
:101EB00098420BD01A4B984208D01A4B984205D042
:101EC000194B984202D0194B984201D1012300E0EE
:101ED00000231BB122F44072CB681A4302608B6866
:101EE000C3620B688362074B984202D0094B984249
:101EF00001D1012300E000230BB10B69036301232F
:101F000043617047000001400004004000080040A9
:101F1000000C00400004014000400140004401402A
:101F20000048014000180040001C00400020004014
:101F300030B50023012404FA01F3046A9C430462CF
:101F4000046A02FA01F52C43046230BD30B50C4638
:101F50000021816821F47F4142EA0325254329437A
:101F6000816030BD0A460021816821F0700142F095
:101F7000070319438160704730B500240022002315
:101F8000056A25F001050562026A4368846924F048
:101F9000700424F003040D682C4322F002028D68C3
:101FA0002A430F4DA84202D00E4DA84201D101256F
:101FB00000E000256DB122F00802CD682A4322F02E
:101FC000040223F4807323F400734D692B438D695D
:101FD0002B43436084614D684563026230BD00005D
:101FE000000001400004014030B50024002200231D
:101FF000056A25F010050562026A4368846924F4C5
:10200000E04424F440740D6844EA052422F02002E0
:102010008D6842EA0512104DA84202D00F4DA84229
:1020200001D1012500E0002585B122F08002CD68B4
:1020300042EA051222F0400223F4806323F4006395
:102040004D6943EA85038D6943EA850343608461F2
:102050004D688563026230BD00000140000401400C
:1020600030B5002400220023056A25F4807505623E
:10207000026A4368C46924F0700424F003040D6804
:102080002C4322F400728D6842EA0522104DA842CA
:1020900002D0104DA84201D1012500E0002585B1F4
:1020A00022F40062CD6842EA052222F4806223F421
:1020B000805323F400534D6943EA05138D6943EAC5
:1020C00005134360C4614D68C563026230BD000002
:1020D000000001400004014030B50022002300242C
:1020E000056A25F480550562036A4468C26922F4D2
:1020F000E04222F440720D6842EA052223F40053C4
:102100008D6843EA05330A4DA84202D0094DA84222
:1021100001D1012500E0002525B124F480444D695A
:1021200044EA85144460C2614D680564036230BDB1
:10213000000001400004014030B50B461446002168
:102140000022026A056A25F001050562816921F015
:10215000F00141EA041122F00A021A43816102628D
:1021600030BD30B50B46144600210022056A25F02B
:10217000100505628169026A21F4704141EA043167
:1021800022F0A00242EA03128161026230BD00BF68
:10219000FEE7000030B5014640F245303EE04C68B5
:1021A00004EB800494ED000ABDEEC00A10EE102A84
:1021B00091ED030ABDEEC00A10EE103A4C6804EB34
:1021C000800494ED000AD1ED030AB4EEE00AF1EECA
:1021D00010FA21D201E0441C20B2B1F90250441C93
:1021E000A5420DDD4D6805EB840494ED000A05EB76
:1021F0008004D4ED000AB4EEE00AF1EE10FAEAD35E
:102200004C6804EB800494ED000AF7EE000A30EE0F
:10221000C00A81ED020A05E0421C10B2B1F90220A9
:102220008242BCDC00BFB1F9022082420BD04A6876
:1022300002EB800292ED000AD1ED030AB4EEE00A4F
:10224000F1EE10FA05DB4FF0FF309FED020A81ED51
:10225000020A30BD000000000146DFED160AB0EEB4
:10226000600AF7EE000A4A68C2ED000A01201CE08D
:102270004A6802EB8002D2ED000A70EE800AB0EEEE
:10228000600A00EE900AF8EEE00A80EE801A4A68D2
:1022900002EB8002D2ED000A61EE200A4A6802EBEE
:1022A0008002C2ED000A421C10B2B1F90220824243
:1022B000DEDC70470000000030B502460B4600210E
:1022C00030E0002028E033F9104001EE904AF8EEAB
:1022D000E11AF0EE610A441833F9144001EE904A15
:1022E000F8EEE11AB0EE611A33F91040451833F9EF
:1022F0001550641B01EE904AB8EEE10A546804EBF5
:102300008104D4ED001A40EE001A546804EB8104F5
:10231000C4ED001A441C20B2B2F902408442D2DC5F
:102320004C1C21B2B2F902408C42CADC30BD000024
:1023300070B505460E464FF0FF34BFEE000AF0EED2
:10234000403A31462846FFF7B7FF2846FFF784FF9B
:102350002846FFF71FFF0446601C48B12146284667
:1023600000F03AF8DFED040A80EE801AF0EE413A10
:10237000B0EE630A70BD000000442C4770B52DED2F
:10238000028B04460D46B0EE408A2580284605EBB8
:10239000D071491009B261809FED0E0A84ED020AE6
:1023A00084ED038AB4F90210880000F0FFF9606040
:1023B000002608E09FED070A606800EB860080EDCC
:1023C000000A701C06B2B4F90200B042F2DCBDECA7
:1023D000028B70BD0000000030B5012901DA0A4609
:1023E00001E04C1E22B2B0F902504C1CA54201DDA6
:1023F00023B200E00B468A4218D1446804EB810402
:10240000D4ED000A446804EB830494ED001AF4EE62
:10241000C10AF1EE10FA04D800EE901AB8EEE00A04
:102420004BE000EE903AB8EEE00A46E08B4218D15D
:10243000446804EB8104D4ED000A446804EB820490
:1024400094ED001AF4EEC10AF1EE10FA04D800EE91
:10245000901AB8EEE00A30E000EE902AB8EEE00AFA
:102460002BE0446804EB820494ED002AF0EE420A6B
:10247000446804EB810494ED002AF0EE421A4468AB
:1024800004EB830494ED002AB0EE421A71EE602A48
:10249000B0EE003AB0EE412A13EE212A32EE602A65
:1024A000B0EE003A22EE032A82EE823A02EE101AD1
:1024B000B8EEC22A33EE020A00BF30BD02E008C8FF
:1024C000121F08C1002AFAD170477047002001E0AE
:1024D00001C1121F002AFBD17047000092B0FEF725
:1024E0006DFBFFF7C3FBFFF7A9F9FFF75DF9FFF7F6
:1024F0002BFBFFF7A9FA09200F909C4810909C48ED
:1025000011900FA89B490860002009909A480A90F2
:102510009748001D0B9009A8486001200C90964830
:102520000D90934808300E900CA88860002000F0B1
:1025300085F9002000F082F98C481430006840F4DE
:1025400080708A4914310860002508260A200B99FA
:1025500008604FF4FA700E99086040F2EE2011996D
:102560000860002211461D20FEF7B9FB012211462A
:102570001E20FEF7B4FB1E20FEF7A4FB1D20FEF775
:10258000A1FB1220FEF79EFB7C48FEF7C1FF7C48B2
:10259000FEF7BEFF00217948FFF7B8F8042177481D
:1025A000FFF7B4F808217548FFF7B0F80C2173481D
:1025B000FFF7ACF89FED730A310205A8FFF7DEFEC6
:1025C000D2E0714800780028FAD0C6F3C000049029
:1025D000C6F380000390C6F340000290039868435E
:1025E0000B990860049868430E9908600298684344
:1025F00011990860ED1C4FF47A7095FBF0F100FB27
:1026000011557610022E08DA082658481430006852
:1026100040F480705549143108605C480068401CE3
:102620005A490860084600681121B0FBF1F201FB2D
:102630001200564908604D481430006840F480701C
:102640004A4914310860524905A8FFF771FE4FF05E
:10265000000A5048008850490988401A87B24F4CF8
:102660004FF001084FF0010958E00A20B4FBF0F0E8
:10267000B7FBF0F00190B7FBF4F000900198002850
:1026800004DDB9F1000F01D04FF0000900980028D7
:1026900004DDB8F1000F01D04FF000080A20B4FBB0
:1026A000F0F0B0B1B9F1000F13D10A21019890FBFD
:1026B000F1F201FB12003A4931F820001FFA80FBC9
:1026C000BAF1000F01D04BF0010B584600F0B6F8FC
:1026D00002E0002000F0B2F8B8F1000F0CD10A219E
:1026E000009890FBF1F201FB12002D4951F820B047
:1026F000584600F0A3F802E0002000F09FF80A20FE
:10270000B4FBF0F419481430006840F480701749A5
:1027100014310860962000F07FF800BF002CA4D18F
:10272000002000F08BF8002000F088F80F481430EB
:10273000006840F480700D49143108604FF47A70DD
:1027400000F06AF81748FEF721F8002016490880C3
:102750000D4908700F4908804FF6FF700E49088038
:102760001D20FEF7AFFA00BF2BE700000004024077
:10277000340800402C01002000100240B40000206A
:10278000F0000020CDCC4C3D4E0000204400002045
:102790003C0100204A0000204C00002000CA9A3B67
:1027A000000000206C00002050000020F0B50B302D
:1027B000154D20F007010024144A0FE003688B42F6
:1027C0000BD38B4205D95E1A43184768C3E90067EB
:1027D00000E04368136002C004E0021D1068002896
:1027E000ECD12046002802D1286808B10020F0BDB5
:1027F000064A07481060074A121A22F00702C0E989
:10280000002401202860D7E7680000206400002031
:10281000441100204013002008B50AE041F2537132
:10282000009100E000BF00994A1E00920029F9DCE7
:1028300000BF011EA0F10100F0DC08BDF0B50446A8
:1028400025461C4800684FF6FF610840194908609A
:102850000520FFF7E1FF002628E005F001073FB95A
:10286000144800684FF6BF7108401249086005E03F
:102870001048006840F040000E4908600520FFF74E
:10288000CBFF0C48006840F080000A4908606D10DA
:102890000520FFF7C1FF074800684FF67F71084029
:1028A000044908600520FFF7B7FF761C082ED4DB2B
:1028B000F0BD000014040240000000000000000011
:1028C00001020304060708090000000001020304D6
:1028D000F0280008000000206C000000BC24000864
:1028E0005C2900086C000020D4160000CC240008ED
:1028F000FC00000060000000DA000000F2000000B0
:1029000066000000B6000000BE000000E00000000D
:10291000FE000000E6000000EE0000003E000000A7
:102920009C0000007A0000009E0000008E00000065
:10293000F60000000000000000000000FFFF0000A3
:10294000000000080000000010000000010000006E
:0C2950000024F400000000000000000063
:04000005080001C529
:00000001FF
