:020000040800F2
:10000000F0040020D9010008CF1300088111000876
:10001000CD130008090400081318000800000000B0
:10002000000000000000000000000000F3130008C2
:100030000B04000800000000F1130008F51300088D
:10004000F3010008F3010008F3010008F3010008C0
:10005000F3010008F3010008F3010008F3010008B0
:10006000F3010008F3010008F3010008F3010008A0
:10007000F3010008F3010008F3010008F301000890
:10008000F3010008F3010008F3010008F301000880
:10009000F3010008F3010008F3010008F301000870
:1000A000F3010008F3010008F3010008F301000860
:1000B000F3010008F3010008DD140008F301000853
:1000C000F3010008F3010008F3010008F301000840
:1000D000F3010008F3010008F3010008F301000830
:1000E000F3010008F3010008F3010008F301000820
:1000F000F3010008F3010008F3010008F301000810
:1001000000000000F3010008F3010008F3010008FB
:100110000000000000000000F3010008F3010008E7
:10012000F3010008F3010008F3010008F3010008DF
:10013000F3010008F3010008F3010008F3010008CF
:10014000F3010008F3010008F3010008F3010008BF
:10015000F3010008F3010008F3010008F3010008AF
:10016000F3010008F3010008000000000000000097
:10017000000000000000000000000000000000007F
:10018000F3010008F3010008000000000000000077
:10019000F3010008F3010008000000000000000067
:1001A000000000000000000000000000000000004F
:1001B000F30100080000000000000000F301000847
:1001C000F3010008DFF80CD000F07AF8004800478F
:1001D00035180008F004002006488047064800470C
:1001E000FEE7FEE7FEE7FEE7FEE7FEE7FEE7FEE7E7
:1001F000FEE7FEE789140008C50100082DE9F05F5D
:100200000546002092469B46884606468146402485
:100210001BE0284641464746224600F041F8534637
:100220005A46C01A914110D311461846224600F092
:1002300028F82D1A67EB01084F46224601200021BD
:1002400000F01FF817EB00094E41201EA4F1010435
:10025000DFDC484631462A464346BDE8F09FD2B22D
:1002600001E000F8012B491EFBD270470022F6E79F
:1002700010B513460A4604461946FFF7F0FF20461C
:1002800010BD202A04DB203A00FA02F1002070475A
:100290009140C2F1200320FA03F3194390407047C4
:1002A000202A04DB203A21FA02F00021704721FACB
:1002B00002F3D040C2F12002914008431946704732
:1002C000064C074D06E0E06840F0010394E80700A3
:1002D00098471034AC42F6D3FFF778FF141A0008A1
:1002E000341A0008454910B54A6822F440324A6081
:1002F0004A6843681A434A6001684A6822F4807277
:100300004A6001684A68036942EA03224A60016858
:100310004A6822F040724A6001684A6883681A435A
:100320004A6001688A6822F400628A6001688A680B
:10033000C3681A438A60816A6FF07062D1420168B3
:100340008A6822F070628A6001688A680CD0836AC9
:100350001A438A6001688A6822F040528A60016804
:100360008A68C36A1A4301E022F040528A60016839
:100370008A6822F002028A6001688A68836942EA18
:1003800043028A60016A002901684A680FD042F47A
:1003900000624A6001684A6822F460424A6001686B
:1003A0004A68174C436A04EB43331A4301E022F4D2
:1003B00000624A600168CA6A22F47002CA62016877
:1003C000CA6A838B0F4C04EB03531A43CA62016859
:1003D0008A6822F400728A6001688A68036B42EAC4
:1003E00043228A6001688A6822F480628A60016818
:1003F0008A68406942EA8020886010BD002301407D
:1004000000E0FFFF0000F0FFFEE7704710B5064C6C
:10041000A06B01F0C3FAA06B01F0C0FA03480168B9
:1004200041F48071016010BD0400002014040240FA
:1004300078B50024009490F83C20012A19D00122BC
:1004400080F83C200A6807230568092A13D9EE685A
:100450000A3A02EB420293409E43EE600B788A68B0
:100460000A3B03EB43039A400368DD682A43DA60E2
:1004700010E0022078BD2E6902EB420293409E43B9
:100480002E610B788A6803EB43039A4003681D6969
:100490002A431A614A681F23072A13D205686E6B24
:1004A000521E02EB820293409E436E630B790A88D0
:1004B0005B1E92B203EB83039A4003685D6B2A4391
:1004C0005A6327E005680D2A12D22E6BD21F02EB69
:1004D000820293409E432E630B790A88DB1F92B2FF
:1004E00003EB83039A4003681D6B2A431A6311E0F0
:1004F000EE6A0D3A02EB820293409E43EE620B7964
:100500000A880D3B92B203EB83039A400368DD6ACD
:100510002A43DA62164B0568144A9D4206D10D68DB
:10052000122D03D1556845F48005556005689D423C
:1005300018D10B68102B01D0112B13D1536843F441
:1005400000035360096810290CD10A490A4A096856
:10055000B1FBF2F101EB8101490000E0491E00917D
:100560000029FBD180F83C40002078BD00230140E9
:10057000002001405400002040420F0070B50400EC
:100580004FF0000503D0206C002610B107E00120D9
:1005900070BD666484F83C60204600F019F8206C59
:1005A000C00610D4206C20F4885040F00200206473
:1005B0002046FFF797FE6664206C20F0020040F0B2
:1005C0000100206400E0012584F83C60284670BDED
:1005D00010B586B0044614216846FFF747FE11495E
:1005E000206888421CD110480021026842F48072C1
:1005F0000260006800F4807005900B4814380268AF
:1006000042F004020260006800F004000590062039
:1006100000900320CDE901016946044800F066F826
:1006200006B010BD002001404438024000080240DE
:1006300018B50021009190F83C20012A07D0012232
:1006400080F83C2002689368DB0702D011E00220AA
:1006500018BD936843F001039360204A204B126851
:10066000B2FBF3F202EB420200E0521E0092002ABB
:10067000FBD102689368DB072DD0036C40F2016464
:10068000A34343F48073036453685B0505D5036C8F
:1006900023F4005343F480530364036CDB0404D558
:1006A000436C23F00603436400E0416480F83C108F
:1006B0000C496FF02203136049680068C90602D034
:1006C0000949884207D1816811F0405F03D18168F0
:1006D00041F080418160002018BD000054000020DE
:1006E00040420F0000230140002001402DE9F84F57
:1006F000DFF874B100224FF001084FF0030A4FF009
:100700000F090BF1040E00BF0B6808FA02F4234036
:10071000A3426ED14D68022D01D0122D0ED1D50805
:1007200000EB850CDCF820505607F70E09FA07F6A7
:10073000B5430E69BE402E43CCF8206006685500D4
:100740000F790AFA05FC07F0030726EA0C06AF400A
:10075000374307604E68012E05D0022E03D0112EBC
:1007600001D0122E0ED18668CF6826EA0C06AF4063
:10077000374387604668A6430C79C4F3001494405D
:1007800034434460C4688E6824EA0C04AE402643B7
:10079000C6604C68E40060D5344C256845F480455B
:1007A0002560246822F0030504F480440094304C52
:1007B0002E19D6F8084895072F0F09FA07F5AC430C
:1007C0002C4DA84201D100251FE02B4DA84201D19C
:1007D00001251AE0294DA84201D1022515E0284D36
:1007E000A84201D1032510E0264DA84202D10425DC
:1007F0000BE032E0244DA84201D1052505E0234D50
:10080000A84201D1062500E00725BD402543C6F8D2
:100810000858DBF800405D464E689C43F60300D55F
:100820001C432C60DEF8004075464E689C43B603BE
:1008300000D51C432C600C4D08352C684E689C4339
:10084000F60200D51C432C60074D0C352C684E6811
:100850009C43B60200D51C432C60521C102AFFF4A6
:1008600053AFBDE8F88F0000003C0140443802401F
:100870000030014000000240000402400008024035
:10088000000C024000100240001402400018024018
:100890000AB1816170470904FBE7000001488068E4
:1008A0007047000048000020024881680278114427
:1008B00081607047480000200B4810B5016841F482
:1008C00000710160016841F480610160016841F4D8
:1008D00080710160032000F06DF8002000F006F840
:1008E00000F024F8002010BD003C024070B50D4D12
:1008F00004464FF47A712878B1FBF0F00A49096890
:10090000B1FBF0F000F0C4FA48B9102C07D2002275
:100910002146501E00F02EF800206C6070BD0120B2
:1009200070BD000048000020540000200A4808B5AF
:10093000016841F480410160006800F4804000904B
:100940000548001F016841F080510160006800F017
:100950008050009008BD00004438024000F01F02A3
:10096000012191404009800000F1E020C0F8001111
:1009700070470000F0B40E4B1B680C46C3F3022313
:10098000C3F10705042D00D90425191D072901D23B
:10099000002300E0DB1E012606FA05F1491E214076
:1009A00099409E40761E16403143F0BC00F010BDC9
:1009B0000CED00E0064900F0070208684FF6FF035F
:1009C000184040EA0220034A1043086070470000C4
:1009D0000CED00E00000FA052DE9F0470E46050099
:1009E00065D0DFF81481D8F80000F7B200F00F00EE
:1009F000B04207D288F80070D8F8000000F00F006D
:100A0000B04254D128683D4C810712D5400703D528
:100A1000206840F4E05020602878000703D5206863
:100A200040F4604020602068A96820F0F00008438E
:100A300020602878C0072DD030496868083901281F
:100A400012D0022813D0032811D009688907002981
:100A50002DDA216821F0030101432160FFF71EFF19
:100A6000814641F2883A0EE009688903EFE7096898
:100A70008901ECE7FFF712FFA0EB0901514502D90C
:100A80000320BDE8F0872068696800F00C00B0EB37
:100A9000810FEFD1D8F80010404601F00F01B142AC
:100AA00007D90770006800F00F00B04201D00120A4
:100AB000E7E72878400705D52068E96820F4E0508A
:100AC000084320602878000706D52068296920F4AB
:100AD000604040EAC100206000F016F82168084A32
:100AE000C1F30311515CC840064908600020FFF7BC
:100AF000FDFE0020C5E70000003C0240083802402F
:100B0000041A000854000020154810B5006810F0C1
:100B10000C02144813D01449042A0FD0082A0ED10D
:100B20000F4C241F2268236802F03F025B0207D5A6
:100B30002068C0F38810A0FB010106E0084610BD44
:100B40002168C1F38811A1FB00010023FFF756FBC8
:100B50002168C1F30141491C4900B0FBF1F010BD0F
:100B6000083802400024F40040787D012DE9F84F58
:100B700005460078DFF800B3C04CC0074AD0DBF868
:100B800000105846C1F38101012908D00068C0F364
:100B9000810002280AD1201D0068400206D5206885
:100BA000800337D56868002872D033E06868B0F5F4
:100BB000803F10D0B0F5A02F206810D020F48030F6
:100BC0002060206820F4802020606868A8B1FFF7CA
:100BD00065FE06460DE0206840F48030F4E740F4FE
:100BE00080202060F7E700BFFFF758FE801B6428D5
:100BF0006FD820688003F7D50CE0FFF74FFE06465C
:100C000005E000BFFFF74AFE801B6428F0D820688B
:100C10008003F7D42878DFF8688280074FF0000956
:100C200040D5DBF80010584611F00C0F09D00068D1
:100C3000C0F3810002280BD18F48001F00684002DA
:100C400006D42068800715D5E868012820D111E076
:100C5000E868B8B10120C8F80000FFF71FFE06469B
:100C600005E000BFFFF71AFE801B0228C0D82068ED
:100C70008007F7D52068296920F0F80040EAC10014
:100C800020600FE0C8F80090FFF708FE064606E077
:100C9000EFE000BFFFF702FE801B022819D8206892
:100CA0008007F7D42878000722D5734E7548696904
:100CB0006C3679B101210160FFF7F0FD074604E0D1
:100CC000FFF7ECFDC01B022803D830688007F7D57A
:100CD0000EE089E0C0F80090FFF7E0FD074604E071
:100CE000FFF7DCFDC01B02287ED830688007F7D4F0
:100CF0002878400768D5DFF880A100270AF1380A74
:100D0000DAF80000C0000BD4DAF8001041F080518E
:100D1000CAF80010DAF80000012700F080500090B7
:100D2000594E3068C00510D4306840F4807030608F
:100D3000FFF7B4FD009005E0FFF7B0FD0099401A01
:100D4000022851D83068C005F6D54B4EA8686836E1
:100D500001280FD00528306810D020F00100306045
:100D6000306820F004003060A868B8B1FFF796FD45
:100D700000900FE0306840F00100F4E740F004001C
:100D80003060F7E7FFF78AFD0099411A41F2883099
:100D9000814266D830688007F4D50EE0FFF77EFD0B
:100DA000009007E0FFF77AFD0099411A41F2883080
:100DB000814256D830688007F4D42FB1DAF8001099
:100DC00021F08051CAF80010A869D0B3DBF80010F8
:100DD000C1F3810102294CD00228484607D0C8F847
:100DE0006000FFF75BFD00E03BE005463CE0474666
:100DF000C8F86000FFF752FD064604E0FFF74EFD1D
:100E0000801B02282DD820688001F7D4F5E907015E
:100E10000843E9681D4A490802EB0141AA6841EA12
:100E200082110843297C40EA0160297D40EA017172
:100E30001148001F016001203866FFF72FFD0546AD
:100E400005E014E0FFF72AFD401B022809D82068BE
:100E50008001F7D50BE000BFFFF720FD401B022803
:100E600002D90320BDE8F88F20688001F4D4002067
:100E7000F8E70120F6E70000083802400038024099
:100E800000004742800E4742007000400000FFFF14
:100E900010B5401EB0F1807F01D3012010BD4FF08E
:100EA000E02460610F21601700F092FA0020A06139
:100EB00007202061002010BD30B590F83820012AAD
:100EC00020D0012280F83820022380F839300368CE
:100ED0005C6824F070045C6003685C680D682C43F7
:100EE0005C6003689C6824F080049C6003689C68D4
:100EF00049680C439C6080F83920002180F8381044
:100F0000084630BD022030BD10B5040003D094F86F
:100F1000390010B107E0012010BD002084F838002E
:100F2000204600F00DF8022084F83900211D2068C9
:100F300000F018FB012084F83900002010BD0000EB
:100F400008B500680B49884212D10B48016841F08E
:100F5000040101600068002200F0040000901146C6
:100F60001E20FFF707FDBDE808401E20FFF7F6BC76
:100F700008BD000000080040403802400168CA680F
:100F800042F00102CA600068016841F0010101609D
:100F90000020704770B5044690F83800012817D03B
:100FA000012584F83850022084F8390020688268CE
:100FB00022F0770222F47F4282600868502837D0FE
:100FC0000DDC202859D005DC88B3102841D151E030
:100FD000022070BD302853D040283AD13FE060282D
:100FE0002ED070280BD0B0F5805F03D0B0F5005F35
:100FF0002FD110E02068816821F0070115E0CB684F
:10100000D1E90121206800F018FB2168886840F0D0
:10101000770088601DE0CB68D1E90121206800F0ED
:101020000CFB2068816841F48041816011E01EE082
:10103000CA684968206800F0C9FB5021206806E0B2
:10104000CA684968206800F0D2FB6021206800F07F
:10105000FEFA84F83950002084F8380070BDCA6860
:101060004968206800F0B2FB40212068EFE70021CA
:101070002068ECE710212068E9E720212068E6E7F6
:1010800030212068E3E770B5044690F83800012865
:101090000DD0012584F83850022084F8390042B17F
:1010A000042A0AD0082A0CD00C2A11D10DE0022003
:1010B00070BD206800F0D4FA0AE0206800F0FCFA65
:1010C00006E0206800F02AFB02E0206800F056FBF2
:1010D00084F83950002084F8380070BD10B5040041
:1010E00003D094F8390010B107E0012010BD0020B2
:1010F00084F83800204600F00CF8022084F839000B
:10110000211D206800F02EFA012084F8390000200B
:1011100010BD704710B50268044631B1042908D0EB
:10112000082920D00C2908D121E0D06840F0020025
:1011300002E0D06840F00400D0600122206800F096
:1011400071FA0D492068884202D00C49884203D1C7
:10115000416C41F4004141642068016841F00101A3
:101160000160002010BDD06840F00800E4E7D068BE
:1011700040F01000E0E700000000014000040140E2
:10118000FEE700007FB50024144800940194029407
:101190001149039401604FF48031C0E901140461E6
:1011A00084610F490462C0E90A140125C460C56165
:1011B00045610463FFF7E2F908B1FFF727F90B2057
:1011C000CDE90005694602940448FFF731F900288B
:1011D00001D0FFF71BF97FBD00200140680000200F
:1011E0000100000F2DE9F04F87B014216846FFF78A
:1011F0003DF841480024016841F080010160016828
:1012000001F080010591016841F00401016001686D
:1012100001F004010591016841F0010101600168DC
:1012200001F001010591016841F0080101600168C8
:1012300001F008010591016841F0020101600168B7
:1012400001F002010591016841F0100101600068A0
:10125000DFF8A89000F01000059000221021484609
:10126000FFF716FBDFF898A04FF6FF77002239460C
:101270005046FFF70DFBDFF88CB04FF4707800227A
:1012800041465846FFF704FB002203211E48FFF7A2
:10129000FFFA0F20009001A90220032681E85100E7
:1012A0000720049069464846FFF720FA1020009076
:1012B0000125CDE90154694648460394FFF716FA23
:1012C0000097CDE90154694650460394FFF70EFAA2
:1012D000CDF80080CDE90154694658460394FFF7E4
:1012E00005FA0096CDE90154694607480394FFF7D3
:1012F000FDF907B0BDE8F08F303802400000024031
:10130000000C0240000402400010024010B58EB0F4
:1013100000240794089409940A940B941C216846AD
:101320000C94FEF7A3FF2848264901600A21C0E972
:1013300001144FF47A71C0E90314FFF7E5FD08B119
:10134000FFF764F84FF48050079007A91E48FFF795
:1013500021FE08B1FFF75AF81B48FFF7BFFE08B19E
:10136000FFF754F80B940BA917480C94FFF7A4FD52
:1013700008B1FFF74BF800940194029400226946EB
:1013800011480494FFF77FFE08B1FFF73FF80422ED
:1013900069460D48FFF777FE08B1FFF737F80822D6
:1013A00069460948FFF76FFE08B1FFF72FF80C22D6
:1013B00069460548FFF767FE002801D0FFF726F8C9
:1013C0000EB010BD00080040B0000020FEE77047DE
:1013D0000907090E002806DA00F00F0000F1E020EE
:1013E00080F8141D704700F1E02080F80014704769
:1013F00070477047FFF758BA30B593B0342168464C
:10140000FEF734FF14210DA8FEF730FF1C4800251D
:10141000016841F080510160006800F08050129036
:101420001848016841F4404101600068022400F45A
:1014300040401290012003901020049000940694E4
:101440000820CDE907506420CDE909040B946846D3
:101450000C94FFF78BFB08B1FEF7D8FF0DA90F2006
:1014600081E831004FF48050CDE9100503210DA82B
:10147000FFF7B2FA002801D0FEF7C8FF13B030BD65
:1014800040380240007000401048016841F470018B
:1014900001600F48016841F0010101600C4A002120
:1014A0000832116002680B4B1A400260031D0A4AA1
:1014B0001A60026822F48022026005480C30016044
:1014C00002495806803908607047000088ED00E046
:1014D00000380240FFFFF6FE10300024F0B51F4A2E
:1014E0001068DFF87CE000F01F03D8074FF001011F
:1014F00014D000205EF82060D6E90054B668366843
:1015000026B1666901FA05F52E436661401C042880
:10151000F0DB10684FF6FE742040106000204FF69C
:10152000FF76441C43FA04F515F0010F12D05EF863
:1015300020506F68D7F814C02D7801FA05F5754072
:101540000CEA050CC7F814C0156801FA04F77740D7
:101550003D401560401C0428E3DBF0BD100800404E
:1015600058000020F0B50268234B244D244E254F2F
:10157000254C4FF0804C984209D0604507D0A842D6
:1015800005D0B04203D0B84201D0A04204D122F02D
:10159000700E4A6842EA0E0298421BD0604519D08C
:1015A000A84217D0B04215D0B84213D0A04211D0F3
:1015B000164DA8420ED0164DA8420BD0154DA8428C
:1015C00008D0154DA84205D0144DA84202D0144DA4
:1015D000A84203D122F44075CA682A4302608A688F
:1015E000C2620A688262984201D0A04201D10969B0
:1015F000016301214161F0BD000001400004004091
:1016000000080040000C0040000401400040014080
:10161000004401400048014000180040001C004008
:101620000020004010B50123046A8B409C430462F3
:10163000036A8A401343036210BD10B5846842EA0E
:10164000032224F47F440A432243826010BD82684F
:1016500022F070020A4342F00701816070470000E7
:1016600030B5026A22F001020262026A43688469AC
:101670000D6824F07304254322F002048A68224393
:101680000B4CA04202D00B4CA0420BD122F008041C
:10169000CA6823F4407322434C6922F004021C43BD
:1016A0008B6923434360856149684163026230BDB1
:1016B000000001400004014030B5026A22F010022F
:1016C0000262026A436884690D6824F4E64444EACD
:1016D00005248D6822F0200242EA05120D4DA84231
:1016E00002D00D4DA8420ED1CD6822F0800242EA10
:1016F00005124D6923F4406343EA85038D6922F0A6
:10170000400243EA85034360846149688163026261
:1017100030BD0000000001400004014030B5026A05
:1017200022F480720262036A4268C46923F400737F
:1017300024F073050C682C438D6843EA05230D4D96
:10174000A84202D00C4DA8420ED1CD6823F400630C
:1017500043EA05234D6922F4405242EA05128D699D
:1017600023F4806342EA05124260C4614968C163A0
:10177000036230BD000001400004014030B5026A40
:1017800022F480520262046A4268C3690D6823F43D
:10179000E64343EA05238D6824F4005444EA053403
:1017A000084DA84202D0084DA84204D14D6922F448
:1017B000804242EA85124260C36149680164046262
:1017C00030BD0000000001400004014010B5036A74
:1017D000046A24F001040462846924F0F00444EAF9
:1017E000021423F00A020A438461026210BD10B59C
:1017F000036A23F0100303628369046A23F47043CD
:1018000043EA023224F0A00343EA0111826101623B
:1018100010BDFEE702E008C8121F08C1002AFAD175
:1018200070477047002001E001C1121F002AFBD160
:10183000704700008AB0FFF73FF84A48012404606F
:10184000FFF7DAFDFFF7CEFCFFF79CFCFFF75EFD2C
:101850000920069044480790424806A9283008907D
:101860004248404A01600021039141492C32CDE9B0
:10187000041203AA4260CDE900413A493031029195
:10188000C0F808D0002000F089F8002000F086F8A9
:10189000354E1436306840F480703060059900246D
:1018A00008250A20086002994FF4FA700860089928
:1018B00040F2EE200860012211461E20FFF75AF880
:1018C0001E20FFF74BF829485830FFF757FB2748F1
:1018D00000215830FFF71EFC244804215830FFF740
:1018E00019FC224808215830FFF714FC1F480C212E
:1018F0005830FFF70FFC1D481030FEF799FE1D4FC2
:101900004FF47A794FF01108FA2000F035F8059B72
:10191000C5F380006043C5F3C002C5F34001186001
:1019200004FB02F0029A106004FB01F008990860C1
:10193000E41C94FBF9F109FB11446D10012D04DA4C
:101940003068082540F4807030603868401CB0FB77
:10195000F8F208FB12003860306840F480703060A4
:10196000D2E700000C0800400004024058000020AC
:10197000001002400000002008B541F2537307E058
:10198000009300E000BF00994A1E00920029F9DC94
:10199000011EA0F10100F3DC08BD00002DE9F041BB
:1019A000174C054620684FF6FF610840206005206F
:1019B000FFF7E2FF00264FF6BF784FF67F7700BFB4
:1019C000206815F0010F18D040F04000206005207D
:1019D000FFF7D2FF206840F0800020606D100520E6
:1019E000FFF7CAFF2068384020600520FFF7C4FFDA
:1019F000761C082EE4DBBDE8F08100EA0800E5E78C
:101A00001404024000000000000000000102030472
:101A100006070809341A00080000002058000000DA
:101A2000141800088C1A00085800002098040000C0
:101A30002418000800000000FC0000006000000006
:101A4000DA000000F200000066000000B6000000AE
:101A5000BE000000E0000000FE000000E600000004
:101A6000EE0000003E0000009C0000007A00000034
:101A70009E0000008E000000F60000000100000043
:0C1A800010000000000000000024F40032
:04000005080001C529
:00000001FF
