:020000040800F2
:1000000038150020D90100081F160008B512000895
:100010001D160008590400087B1A000800000000A3
:10002000000000000000000000000000431600086F
:100030005B04000800000000411600084516000897
:10004000F3010008F3010008F3010008F3010008C0
:10005000F3010008F3010008F3010008F3010008B0
:10006000F3010008F3010008F3010008F3010008A0
:10007000F3010008F3010008F3010008F301000890
:10008000F3010008F3010008E5020008F30100088D
:10009000F3010008F3010008F3010008F301000870
:1000A000F3010008F3010008F3010008F301000860
:1000B000F30100082D17000845170008F301000898
:1000C000F3010008F3010008F3010008F301000840
:1000D000F3010008F3010008F3010008F301000830
:1000E000F3010008F3010008F3010008F301000820
:1000F000F3010008F3010008F3010008F301000810
:1001000000000000F3010008F3010008F3010008FB
:100110000000000000000000F3010008F3010008E7
:10012000F3010008F3010008F3010008F3010008DF
:10013000F3010008F3010008F3010008F3010008CF
:10014000F3010008F3010008F3010008F3010008BF
:10015000F3010008F3010008F3010008F3010008AF
:10016000F3010008F3010008000000000000000097
:10017000000000000000000000000000000000007F
:10018000F3010008F3010008000000000000000077
:10019000F3010008F3010008000000000000000067
:1001A000000000000000000000000000000000004F
:1001B000F30100080000000000000000F301000847
:1001C000F3010008DFF80CD000F07AF8004800478F
:1001D0009D1A000838150020064880470648004749
:1001E000FEE7FEE7FEE7FEE7FEE7FEE7FEE7FEE7E7
:1001F000FEE7FEE7D9160008C50100082DE9F05F0B
:100200000546002092469B46884606468146402485
:100210001BE0284641464746224600F041F8534637
:100220005A46C01A914110D311461846224600F092
:1002300028F82D1A67EB01084F46224601200021BD
:1002400000F01FF817EB00094E41201EA4F1010435
:10025000DFDC484631462A464346BDE8F09FD2B22D
:1002600001E000F8012B491EFBD270470022F6E79F
:1002700010B513460A4604461946FFF7F0FF20461C
:1002800010BD202A04DB203A00FA02F1002070475A
:100290009140C2F1200320FA03F3194390407047C4
:1002A000202A04DB203A21FA02F00021704721FACB
:1002B00002F3D040C2F12002914008431946704732
:1002C000064C074D06E0E06840F0010394E80700A3
:1002D00098471034AC42F6D3FFF778FF681D00084A
:1002E000881D000810B5114800F070F982B210485E
:1002F0004FF4006342800189994203D20B4CC03411
:1003000024F81120491C994201D2018101E0012108
:10031000017081888A4200D98280C1888A4200D2D5
:10032000C280BDE81040122000F0A8BB740000207D
:1003300000000020454910B54A6822F440324A6066
:100340004A6843681A434A6001684A6822F4807226
:100350004A6001684A68036942EA03224A60016808
:100360004A6822F040724A6001684A6883681A430A
:100370004A6001688A6822F400628A6001688A68BB
:10038000C3681A438A60816A6FF07062D142016863
:100390008A6822F070628A6001688A680CD0836A79
:1003A0001A438A6001688A6822F040528A600168B4
:1003B0008A68C36A1A4301E022F040528A600168E9
:1003C0008A6822F002028A6001688A68836942EAC8
:1003D00043028A60016A002901684A680FD042F42A
:1003E00000624A6001684A6822F460424A6001681B
:1003F0004A68174C436A04EB43331A4301E022F482
:1004000000624A600168CA6A22F47002CA62016826
:10041000CA6A838B0F4C04EB03531A43CA62016808
:100420008A6822F400728A6001688A68036B42EA73
:1004300043228A6001688A6822F480628A600168C7
:100440008A68406942EA8020886010BD002301402C
:1004500000E0FFFF0000F0FFFEE7704710B5064C1C
:10046000A06B01F045FCA06B01F042FC0348016861
:1004700041F48071016010BD10000020140402409E
:1004800078B50024009490F83C20012A19D001226C
:1004900080F83C200A6807230568092A13D9EE680A
:1004A0000A3A02EB420293409E43EE600B788A6860
:1004B0000A3B03EB43039A400368DD682A43DA6092
:1004C00010E0022078BD2E6902EB420293409E4369
:1004D0002E610B788A6803EB43039A4003681D6919
:1004E0002A431A614A681F23072A13D205686E6BD4
:1004F000521E02EB820293409E436E630B790A8880
:100500005B1E92B203EB83039A4003685D6B2A4340
:100510005A6327E005680D2A12D22E6BD21F02EB18
:10052000820293409E432E630B790A88DB1F92B2AE
:1005300003EB83039A4003681D6B2A431A6311E09F
:10054000EE6A0D3A02EB820293409E43EE620B7913
:100550000A880D3B92B203EB83039A400368DD6A7D
:100560002A43DA62164B0568144A9D4206D10D688B
:10057000122D03D1556845F48005556005689D42EC
:1005800018D10B68102B01D0112B13D1536843F4F1
:1005900000035360096810290CD10A490A4A096806
:1005A000B1FBF2F101EB8101490000E0491E00912D
:1005B0000029FBD180F83C40002078BD0023014099
:1005C000002001406000002040420F000068C06C25
:1005D000704770B504004FF0000503D0206C002672
:1005E00010B107E0012070BD666484F83C602046CD
:1005F00000F01AF8206CC00610D4206C20F488504B
:1006000040F0020020642046FFF794FE6664206CF0
:1006100020F0020040F00100206400E0012584F891
:100620003C60284670BD000010B586B00446142119
:100630006846FFF71BFE1149206888421CD110480C
:100640000021026842F480720260006800F4807049
:1006500005900B481438026842F0040202600068FA
:1006600000F004000590062000900320CDE9010170
:100670006946044800F0CAF806B010BD00200140E9
:10068000443802400008024018B50021009190F85B
:100690003C20012A07D0012280F83C2002689368A0
:1006A000DB0702D011E0022018BD936843F001037C
:1006B0009360204A204B1268B2FBF3F202EB420235
:1006C00000E0521E0092002AFBD102689368DB070B
:1006D0002DD0036C40F20164A34343F480730364A0
:1006E00053685B0505D5036C23F4005343F4805332
:1006F0000364036CDB0404D5436C23F006034364FA
:1007000000E0416480F83C100C496FF02203136054
:1007100049680068C90602D00949884207D1816842
:1007200011F0405F03D1816841F080418160002079
:1007300018BD00006000002040420F00002301406F
:100740000020014018B50021009190F83C20012ABA
:1007500007D0012280F83C2002689368DB0702D0B2
:1007600011E0022018BD936843F001039360224A10
:10077000224B1268B2FBF3F202EB420200E0521E7F
:100780000092002AFBD102689368DB0732D0036C29
:1007900040F20164A34343F48073036453685B0530
:1007A00005D5036C23F4005343F480530364036CB6
:1007B000DB0404D5436C23F00603436400E041648A
:1007C00080F83C100E4B6FF02201116001684A68FE
:1007D0000C4C22434A6059680068C90602D00A4995
:1007E000884207D1816811F0405F03D1816841F0F0
:1007F00080418160002018BD6000002040420F0051
:100800000023014020000004002001402DE9F84FA2
:10081000DFF874B100224FF001084FF0030A4FF0E7
:100820000F090BF1040E00BF0B6808FA02F4234015
:10083000A3426ED14D68022D01D0122D0ED1D508E4
:1008400000EB850CDCF820505607F70E09FA07F686
:10085000B5430E69BE402E43CCF8206006685500B3
:100860000F790AFA05FC07F0030726EA0C06AF40E9
:10087000374307604E68012E05D0022E03D0112E9B
:1008800001D0122E0ED18668CF6826EA0C06AF4042
:10089000374387604668A6430C79C4F3001494403C
:1008A00034434460C4688E6824EA0C04AE40264396
:1008B000C6604C68E40060D5344C256845F480453A
:1008C0002560246822F0030504F480440094304C31
:1008D0002E19D6F8084895072F0F09FA07F5AC43EB
:1008E0002C4DA84201D100251FE02B4DA84201D17B
:1008F00001251AE0294DA84201D1022515E0284D15
:10090000A84201D1032510E0264DA84202D10425BA
:100910000BE032E0244DA84201D1052505E0234D2E
:10092000A84201D1062500E00725BD402543C6F8B1
:100930000858DBF800405D464E689C43F60300D53E
:100940001C432C60DEF8004075464E689C43B6039D
:1009500000D51C432C600C4D08352C684E689C4318
:10096000F60200D51C432C60074D0C352C684E68F0
:100970009C43B60200D51C432C60521C102AFFF485
:1009800053AFBDE8F88F0000003C014044380240FE
:100990000030014000000240000402400008024014
:1009A000000C0240001002400014024000180240F7
:1009B0000AB1816170470904FBE7000001488068C3
:1009C00070470000540000200248816802781144FA
:1009D00081607047540000200B4810B5016841F455
:1009E00000710160016841F480610160016841F4B7
:1009F00080710160032000F077F8002000F006F815
:100A000000F024F8002010BD003C024070B50D4DF0
:100A100004464FF47A712878B1FBF0F00A4909686E
:100A2000B1FBF0F000F0CEFA48B9102C07D200224A
:100A30002146501E00F038F800206C6070BD012087
:100A400070BD000054000020600000200A4808B576
:100A5000016841F480410160006800F4804000902A
:100A60000548001F016841F080510160006800F0F6
:100A70008050009008BD00004438024000F01F0282
:100A8000012191404009800000F1E020C0F880126F
:100A9000704700F01F02012191404009800000F1E1
:100AA000E020C0F800117047F0B40E4B1B680C46F4
:100AB000C3F30223C3F10705042D00D90425191D32
:100AC000072901D2002300E0DB1E012606FA05F10A
:100AD000491E214099409E40761E16403143F0BC8D
:100AE00000F09EBD0CED00E0064900F0070208682A
:100AF0004FF6FF03184040EA0220034A1043086003
:100B0000704700000CED00E00000FA052DE9F04709
:100B10000E46050065D0DFF81481D8F80000F7B262
:100B200000F00F00B04207D288F80070D8F800003B
:100B300000F00F00B04254D128683D4C810712D517
:100B4000400703D5206840F4E05020602878000773
:100B500003D5206840F4604020602068A96820F038
:100B6000F000084320602878C0072DD0304968681D
:100B70000839012812D0022813D0032811D009689F
:100B8000890700292DDA216821F003010143216042
:100B9000FFF714FF814641F2883A0EE009688903A5
:100BA000EFE709688901ECE7FFF708FFA0EB09010F
:100BB000514502D90320BDE8F0872068696800F03C
:100BC0000C00B0EB810FEFD1D8F80010404601F0D7
:100BD0000F01B14207D90770006800F00F00B04262
:100BE00001D00120E7E72878400705D52068E968AB
:100BF00020F4E050084320602878000706D52068DC
:100C0000296920F4604040EAC100206000F016F835
:100C10002168084AC1F30311515CC84006490860C5
:100C20000020FFF7F3FE0020C5E70000003C024073
:100C300008380240581D000860000020154810B513
:100C4000006810F00C02144813D01449042A0FD085
:100C5000082A0ED10F4C241F2268236802F03F029D
:100C60005B0207D52068C0F38810A0FB010106E0F5
:100C7000084610BD2168C1F38811A1FB00010023C3
:100C8000FFF7BCFA2168C1F30141491C4900B0FBE0
:100C9000F1F010BD083802400024F40040787D01D6
:100CA0002DE9F84F05460078DFF800B3C04CC007C7
:100CB0004AD0DBF800105846C1F38101012908D061
:100CC0000068C0F3810002280AD1201D006840029C
:100CD00006D52068800337D56868002872D033E0D5
:100CE0006868B0F5803F10D0B0F5A02F206810D014
:100CF00020F480302060206820F480202060686824
:100D0000A8B1FFF75BFE06460DE0206840F4803096
:100D1000F4E740F480202060F7E700BFFFF74EFEC5
:100D2000801B64286FD820688003F7D50CE0FFF79C
:100D300045FE064605E000BFFFF740FE801B642825
:100D4000F0D820688003F7D42878DFF8688280071D
:100D50004FF0000940D5DBF80010584611F00C0F99
:100D600009D00068C0F3810002280BD18F48001F12
:100D70000068400206D42068800715D5E86801287D
:100D800020D111E0E868B8B10120C8F80000FFF7F1
:100D900015FE064605E000BFFFF710FE801B022887
:100DA000C0D820688007F7D52068296920F0F800AE
:100DB00040EAC10020600FE0C8F80090FFF7FEFD98
:100DC000064606E0EFE000BFFFF7F8FD801B0228B3
:100DD00019D820688007F7D42878000722D5734EE9
:100DE000754869696C3679B101210160FFF7E6FD4C
:100DF000074604E0FFF7E2FDC01B022803D8306875
:100E00008007F7D50EE089E0C0F80090FFF7D6FD27
:100E1000074604E0FFF7D2FDC01B02287ED83068E9
:100E20008007F7D42878400768D5DFF880A100272D
:100E30000AF1380ADAF80000C0000BD4DAF8001022
:100E400041F08051CAF80010DAF80000012700F0E4
:100E500080500090594E3068C00510D4306840F47E
:100E600080703060FFF7AAFD009005E0FFF7A6FD57
:100E70000099401A022851D83068C005F6D54B4E6B
:100E8000A868683601280FD00528306810D020F0F7
:100E900001003060306820F004003060A868B8B10C
:100EA000FFF78CFD00900FE0306840F00100F4E7A0
:100EB00040F004003060F7E7FFF780FD0099411A29
:100EC00041F28830814266D830688007F4D50EE060
:100ED000FFF774FD009007E0FFF770FD0099411ADD
:100EE00041F28830814256D830688007F4D42FB15F
:100EF000DAF8001021F08051CAF80010A869D0B3C8
:100F0000DBF80010C1F3810102294CD002284846C9
:100F100007D0C8F86000FFF751FD00E03BE0054650
:100F20003CE04746C8F86000FFF748FD064604E08D
:100F3000FFF744FD801B02282DD820688001F7D4DC
:100F4000F5E907010843E9681D4A490802EB014138
:100F5000AA6841EA82110843297C40EA0160297DA0
:100F600040EA01711148001F016001203866FFF757
:100F700025FD054605E014E0FFF720FD401B022893
:100F800009D820688001F7D50BE000BFFFF716FDF8
:100F9000401B022802D90320BDE8F88F2068800199
:100FA000F4D40020F8E70120F6E7000008380240FA
:100FB0000038024000004742800E47420070004067
:100FC0000000FFFF10B5401EB0F1807F01D301206B
:100FD00010BD4FF0E02460610F21601700F020FB8E
:100FE0000020A06107202061002010BD30B590F8DE
:100FF0003820012A20D0012280F83820022380F8EE
:10100000393003685C6824F070045C6003685C68D5
:101010000D682C435C6003689C6824F080049C602D
:1010200003689C6849680C439C6080F83920002163
:1010300080F83810084630BD022030BD10B50400DD
:1010400003D094F8390010B107E0012010BD002052
:1010500084F83800204600F00DF8022084F83900AA
:10106000211D206800F0B2FB012084F83900002027
:1010700010BD000008B500680B49884212D10B482A
:10108000016841F0040101600068002200F00400E2
:10109000009011461E20FFF707FDBDE808401E2006
:1010A000FFF7F7BC08BD00000008004040380240D0
:1010B0000168CA6842F00102CA600068016841F034
:1010C000010101600020704770B5044690F83800B7
:1010D000012817D0012584F83850022084F83900FF
:1010E0002068826822F0770222F47F4282600868DA
:1010F000502837D00DDC202859D005DC88B31028C3
:1011000041D151E0022070BD302853D040283AD15F
:101110003FE060282ED070280BD0B0F5805F03D060
:10112000B0F5005F2FD110E02068816821F0070141
:1011300015E0CB68D1E90121206800F0B2FB2168FD
:10114000886840F0770088601DE0CB68D1E9012114
:10115000206800F0A6FB2068816841F4804181602E
:1011600011E01EE0CA684968206800F063FC502165
:10117000206806E0CA684968206800F06CFC6021BD
:10118000206800F098FB84F83950002084F838007B
:1011900070BDCA684968206800F04CFC4021206896
:1011A000EFE700212068ECE710212068E9E7202123
:1011B0002068E6E730212068E3E770B5044690F840
:1011C000380001280DD0012584F83850022084F819
:1011D000390042B1042A0AD0082A0CD00C2A11D1B5
:1011E0000DE0022070BD206800F06EFB0AE0206870
:1011F00000F096FB06E0206800F0C4FB02E02068E7
:1012000000F0F0FB84F83950002084F8380070BDFD
:1012100010B5040003D094F8390010B107E00120A4
:1012200010BD002084F83800204600F00CF80220A1
:1012300084F83900211D206800F0C8FA012084F8E4
:101240003900002010BD704710B50268044631B166
:10125000042908D0082920D00C2908D121E0D06821
:1012600040F0020002E0D06840F00400D0600122AB
:10127000206800F00BFB0D492068884202D00C4921
:10128000884203D1416C41F4004141642068016807
:1012900041F001010160002010BDD06840F008005D
:1012A000E4E7D06840F01000E0E7000000000140F3
:1012B00000040140FEE700001A4810B5026886B03D
:1012C000002142F4807202600068009100F4807096
:1012D00001910291CDE903101448134A01240260E0
:1012E0004FF48032C0E9012101618161104A01623D
:1012F000C0E90A21C160C46144610163FFF769F973
:1013000008B1FFF7ABF80A20CDE9000407200290EE
:1013100069460648FFF7B4F8002801D0FFF79EF8A9
:1013200006B010BD44380240002001407400002087
:101330000100000F2DE9F04F8BB014216846FEF735
:1013400095FF48480024016841F080010160016870
:1013500001F080010A91016841F004010160016817
:1013600001F004010A91016841F001010160016886
:1013700001F001010A91016841F008010160016872
:1013800001F008010A91016841F002010160016861
:1013900001F002010A91016841F01001016000684A
:1013A000032500F010000595CDE906540A9005A923
:1013B0002D48FFF72BFADFF8B490002210214846A1
:1013C000FFF7F6FADFF8A8A04FF6FF7700223946BC
:1013D0005046FFF7EDFADFF89CB04FF4707800222A
:1013E00041465846FFF7E4FA002203212248FFF75E
:1013F000DFFA0F20009001A9022081E831000720C8
:10140000049069464846FFF701FA10200090012633
:10141000CDE90164694648460394FFF7F7F91120C6
:101420000097CDE90104694650460394FFF7EEF9B1
:101430004FF6017101225046FFF7BAFACDF800804D
:10144000CDE90164694658460394FFF7DFF900953A
:10145000CDE90164694608480394FFF7D7F90BB05A
:10146000BDE8F08F30380240000802400000024022
:10147000000C0240000402400010024030B5344825
:101480008FB00024016841F00201016000680794F8
:1014900000F002000894CDE90C4009940A941C2144
:1014A0000B946846FEF7E2FE2B4D2A48C5E900047E
:1014B000AC60FFF7C3FB4AF21041B0FBF1F0C5E9A5
:1014C00003042846FFF7BAFD08B1FEF7C7FF4FF443
:1014D0008050079007A92048FFF7F6FD08B1FEF7F6
:1014E000BDFF1D48FFF794FE08B1FEF7B7FF0B9450
:1014F0000BA919480C94FFF779FD08B1FEF7AEFF70
:101500000094019402940022694613480494FFF762
:1015100054FE08B1FEF7A2FF042269460E48FFF709
:101520004CFE08B1FEF79AFF082269460A48FFF709
:1015300044FE08B1FEF792FF0C2269460648FFF709
:101540003CFE002801D0FEF789FF0FB030BD00003F
:101550004038024000040040F800002010B58EB072
:1015600000240794089409940A940B941C2168465B
:101570000C94FEF77BFE2848264901600521C0E94E
:1015800001144FF47A71C0E90314FFF757FD08B155
:10159000FEF764FF4FF48050079007A91E48FFF73D
:1015A00093FD08B1FEF75AFF1B48FFF731FE08B163
:1015B000FEF754FF0B940BA917480C94FFF716FD88
:1015C00008B1FEF74BFF0094019402940022694693
:1015D00011480494FFF7F1FD08B1FEF73FFF042224
:1015E00069460D48FFF7E9FD08B1FEF737FF08220D
:1015F00069460948FFF7E1FD08B1FEF72FFF0C220D
:1016000069460548FFF7D9FD002801D0FEF726FFFF
:101610000EB010BD00080040BC000020FEE770477F
:101620000907090E002806DA00F00F0000F1E0209B
:1016300080F8141D704700F1E02080F80014704716
:1016400070477047FFF7C0B930B593B03421684692
:10165000FEF70CFE14210DA8FEF708FE1C4800251D
:10166000016841F080510160006800F080501290E4
:101670001848016841F4404101600068022400F408
:101680004040129001200390102004900094069492
:101690000820CDE907506420CDE909040B94684681
:1016A0000C94FFF7FDFA08B1FEF7D8FE0DA90F2044
:1016B00081E831004FF48050CDE9100503210DA8D9
:1016C000FFF724FA002801D0FEF7C8FE13B030BDA2
:1016D00040380240007000401048016841F4700139
:1016E00001600F48016841F0010101600C4A0021CE
:1016F0000832116002680B4B1A400260031D0A4A4F
:101700001A60026822F48022026005480C300160F1
:1017100002495806803908607047000088ED00E0F3
:1017200000380240FFFFF6FE1030002410B50348D9
:10173000FFF708F802490020086010BD740000207F
:1017400010040040F0B51F4A1068DFF87CE000F09C
:101750001F03D8074FF0010114D000205EF820606D
:10176000D6E90054B668366826B1666901FA05F50F
:101770002E436661401C0428F0DB10684FF6FE74AF
:101780002040106000204FF6FF76441C43FA04F519
:1017900015F0010F12D05EF820506F68D7F814C012
:1017A0002D7801FA05F575400CEA050CC7F814C050
:1017B000156801FA04F777403D401560401C042885
:1017C000E3DBF0BD1008004064000020F0B50268C3
:1017D000234B244D244E254F254C4FF0804C9842EE
:1017E00009D0604507D0A84205D0B04203D0B84226
:1017F00001D0A04204D122F0700E4A6842EA0E02E3
:1018000098421BD0604519D0A84217D0B04215D0DD
:10181000B84213D0A04211D0164DA8420ED0164D9A
:10182000A8420BD0154DA84208D0154DA84205D0AE
:10183000144DA84202D0144DA84203D122F44075A1
:10184000CA682A4302608A68C2620A688262984251
:1018500001D0A04201D10969016301214161F0BDBC
:10186000000001400004004000080040000C00405F
:101870000004014000400140004401400048014094
:1018800000180040001C00400020004010B501235B
:10189000046A8B409C430462036A8A4013430362D8
:1018A00010BD10B5846842EA032224F47F440A4341
:1018B0002243826010BD826822F070020A4342F027
:1018C000070181607047000030B5026A22F0010212
:1018D0000262026A436884690D6824F07304254338
:1018E00022F002048A6822430B4CA04202D00B4C27
:1018F000A0420BD122F00804CA6823F440732243AB
:101900004C6922F004021C438B69234343608561C8
:1019100049684163026230BD00000140000401409B
:1019200030B5026A22F010020262026A43688469DA
:101930000D6824F4E64444EA05248D6822F0200270
:1019400042EA05120D4DA84202D00D4DA8420ED11B
:10195000CD6822F0800242EA05124D6923F440630B
:1019600043EA85038D6922F0400243EA8503436020
:10197000846149688163026230BD0000000001405B
:101980000004014030B5026A22F480720262036AE8
:101990004268C46923F4007324F073050C682C4377
:1019A0008D6843EA05230D4DA84202D00C4DA84294
:1019B0000ED1CD6823F4006343EA05234D6922F478
:1019C000405242EA05128D6923F4806342EA05120F
:1019D0004260C4614968C163036230BD00000140D8
:1019E0000004014030B5026A22F480520262046AA7
:1019F0004268C3690D6823F4E64343EA05238D6812
:101A000024F4005444EA0534084DA84202D0084D9D
:101A1000A84204D14D6922F4804242EA8512426014
:101A2000C36149680164046230BD000000000140E8
:101A30000004014010B5036A046A24F00104046242
:101A4000846924F0F00444EA021423F00A020A43F1
:101A50008461026210BD10B5036A23F010030362B3
:101A60008369046A23F4704343EA023224F0A0033A
:101A700043EA01118261016210BDFEE702E008C87D
:101A8000121F08C1002AFAD170477047002001E0F8
:101A900001C1121F002AFBD1704700008AB0FEF777
:101AA0009BFFFFF7D1FDFFF745FCFFF705FCFFF7B4
:101AB00055FDFFF7E3FC092006907E4807907E481D
:101AC00008907E4806A97C4A0160002103917C4968
:101AD000121DCDE9041203AA42600122CDE90021C2
:101AE000754908310291C0F808D0002000F000F9D3
:101AF000002000F0FDF86F4E1436306840F480701E
:101B00003060059900244FF00A090825C1F80090BB
:101B100002994FF4FA700860089940F2EE200860CC
:101B2000224621461D20FEF7BFFF012211461E203E
:101B3000FEF7BAFF1E20FEF7ACFF1D20FEF7A9FF3F
:101B40001220FEF7A6FF5D485830FFF7B1FA5B4858
:101B50009430FFF7ADFA594800215830FFF774FB75
:101B6000564804215830FFF76FFB5448082158307D
:101B7000FFF76AFB51480C215830FFF765FB00BFA7
:101B8000059BC5F380026243C5F3C000C5F3400165
:101B90001A60029A6043106004FB01F00899086023
:101BA000E41C4FF47A7094FBF0F100FB11446D10CB
:101BB000022D06DA3F4808251430016841F480718F
:101BC000016040481122C168491CB1FBF2F302FBDD
:101BD0001311C160374914310A6842F480720A60F7
:101BE0000278002ACCD08288C088374E101A4FF075
:101BF000010A1FFA80F8D34696FBF9F198FBF1F041
:101C000098FBF6F7002804DDBBF1000F01D04FF080
:101C1000000B002F04DDBAF1000F01D04FF0000AD5
:101C2000092E02DDBBF1000F32D0002000F060F879
:101C3000BAF1000F35D0002000F05AF896FBF9F603
:101C40001C481430016841F480710160962000F056
:101C50003DF8002ED0DC002000F04AF8002000F013
:101C600047F814481430016841F4807101604FF462
:101C70007A7000F02BF811481030FEF705FD11487E
:101C800000210181017081804FF6FF71C18077E7EB
:101C900090FBF9F209FB12010A48103050F82100BC
:101CA000C4E797FBF9F1074809FB1171103050F8B0
:101CB0002100C1E700040240340800406400002015
:101CC0000010024000000020A086010008B541F28B
:101CD000537307E0009300E000BF00994A1E009292
:101CE0000029F9DC011EA0F10100F3DC08BD0000B1
:101CF0002DE9F041174C054620684FF6FF6108407A
:101D000020600520FFF7E2FF00264FF6BF784FF670
:101D10007F7700BF206815F0010F18D040F0400019
:101D200020600520FFF7D2FF206840F0800020608F
:101D30006D100520FFF7CAFF20683840206005209D
:101D4000FFF7C4FF761C082EE4DBBDE8F08100EA53
:101D50000800E5E714040240000000000000000055
:101D60000102030406070809881D0008000000207E
:101D7000640000007C1A0008EC1D000864000020CC
:101D8000D41400008C1A0008000000000000FFFFBF
:101D90000000000000000000FC00000060000000E7
:101DA000DA000000F200000066000000B60000004B
:101DB000BE000000E0000000FE000000E6000000A1
:101DC000EE0000003E0000009C0000007A000000D1
:101DD0009E0000008E000000F600000001000000E0
:0C1DE00010000000000000000024F400CF
:04000005080001C529
:00000001FF
